{
  "abi": [
    {
      "anonymous": false,
      "inputs": [
        {
          "indexed": true,
          "internalType": "address",
          "name": "previousOwner",
          "type": "address"
        },
        {
          "indexed": true,
          "internalType": "address",
          "name": "newOwner",
          "type": "address"
        }
      ],
      "name": "OwnershipTransferred",
      "type": "event"
    },
    {
      "anonymous": false,
      "inputs": [
        {
          "indexed": false,
          "internalType": "uint256",
          "name": "_amount",
          "type": "uint256"
        }
      ],
      "name": "honorSent",
      "type": "event"
    },
    {
      "anonymous": false,
      "inputs": [
        {
          "indexed": false,
          "internalType": "string",
          "name": "_ipfs_cid",
          "type": "string"
        }
      ],
      "name": "missionOneCompleted",
      "type": "event"
    },
    {
      "anonymous": false,
      "inputs": [
        {
          "indexed": false,
          "internalType": "string",
          "name": "_ipfs_cid",
          "type": "string"
        },
        {
          "indexed": false,
          "internalType": "bool",
          "name": "_consensus",
          "type": "bool"
        }
      ],
      "name": "missionTwoConsensusCompleted",
      "type": "event"
    },
    {
      "anonymous": false,
      "inputs": [
        {
          "indexed": false,
          "internalType": "address",
          "name": "_userAddress",
          "type": "address"
        }
      ],
      "name": "userCreated",
      "type": "event"
    },
    {
      "anonymous": false,
      "inputs": [
        {
          "indexed": false,
          "internalType": "address",
          "name": "_userAddress",
          "type": "address"
        },
        {
          "indexed": false,
          "internalType": "uint256",
          "name": "_amount",
          "type": "uint256"
        }
      ],
      "name": "userFunded",
      "type": "event"
    },
    {
      "inputs": [
        {
          "internalType": "address",
          "name": "",
          "type": "address"
        }
      ],
      "name": "birdSeeds",
      "outputs": [
        {
          "internalType": "uint256",
          "name": "",
          "type": "uint256"
        }
      ],
      "stateMutability": "view",
      "type": "function"
    },
    {
      "inputs": [
        {
          "internalType": "uint256",
          "name": "",
          "type": "uint256"
        }
      ],
      "name": "colorIdToEgg",
      "outputs": [
        {
          "internalType": "enum Wingbird.EggColors",
          "name": "",
          "type": "uint8"
        }
      ],
      "stateMutability": "view",
      "type": "function"
    },
    {
      "inputs": [
        {
          "internalType": "string",
          "name": "_nickname",
          "type": "string"
        },
        {
          "internalType": "address",
          "name": "_userAddress",
          "type": "address"
        },
        {
          "internalType": "uint256",
          "name": "_color",
          "type": "uint256"
        },
        {
          "internalType": "string",
          "name": "_imgURL",
          "type": "string"
        }
      ],
      "name": "createNewUser",
      "outputs": [],
      "stateMutability": "nonpayable",
      "type": "function"
    },
    {
      "inputs": [
        {
          "internalType": "uint256",
          "name": "_color",
          "type": "uint256"
        }
      ],
      "name": "getEggColor",
      "outputs": [
        {
          "internalType": "enum Wingbird.EggColors",
          "name": "",
          "type": "uint8"
        }
      ],
      "stateMutability": "view",
      "type": "function"
    },
    {
      "inputs": [
        {
          "internalType": "address",
          "name": "_bird",
          "type": "address"
        }
      ],
      "name": "getFinalHonors",
      "outputs": [
        {
          "components": [
            {
              "internalType": "uint256",
              "name": "OwlPoints",
              "type": "uint256"
            },
            {
              "internalType": "uint256",
              "name": "EaglePoints",
              "type": "uint256"
            },
            {
              "internalType": "uint256",
              "name": "PeacockPoints",
              "type": "uint256"
            },
            {
              "internalType": "uint256",
              "name": "HummingbirdPoints",
              "type": "uint256"
            },
            {
              "internalType": "uint256",
              "name": "PenguinPoints",
              "type": "uint256"
            }
          ],
          "internalType": "struct Wingbird.BirdHonors",
          "name": "",
          "type": "tuple"
        }
      ],
      "stateMutability": "view",
      "type": "function"
    },
    {
      "inputs": [
        {
          "internalType": "string",
          "name": "_cid",
          "type": "string"
        }
      ],
      "name": "getIpfsObject",
      "outputs": [
        {
          "components": [
            {
              "internalType": "string",
              "name": "ipfs_cid",
              "type": "string"
            },
            {
              "internalType": "address[]",
              "name": "_birds",
              "type": "address[]"
            }
          ],
          "internalType": "struct Wingbird.IpfsInfo",
          "name": "",
          "type": "tuple"
        }
      ],
      "stateMutability": "view",
      "type": "function"
    },
    {
      "inputs": [],
      "name": "getTotalBirds",
      "outputs": [
        {
          "internalType": "uint256",
          "name": "",
          "type": "uint256"
        }
      ],
      "stateMutability": "view",
      "type": "function"
    },
    {
      "inputs": [
        {
          "internalType": "address",
          "name": "_bird",
          "type": "address"
        }
      ],
      "name": "getUser",
      "outputs": [
        {
          "components": [
            {
              "internalType": "string",
              "name": "nickName",
              "type": "string"
            },
            {
              "internalType": "uint256",
              "name": "color",
              "type": "uint256"
            },
            {
              "internalType": "string",
              "name": "imgURL",
              "type": "string"
            }
          ],
          "internalType": "struct Wingbird.Bird",
          "name": "",
          "type": "tuple"
        }
      ],
      "stateMutability": "view",
      "type": "function"
    },
    {
      "inputs": [
        {
          "internalType": "address",
          "name": "_bird",
          "type": "address"
        }
      ],
      "name": "getUserBalance",
      "outputs": [
        {
          "internalType": "uint256",
          "name": "",
          "type": "uint256"
        }
      ],
      "stateMutability": "view",
      "type": "function"
    },
    {
      "inputs": [
        {
          "internalType": "uint256",
          "name": "_amount",
          "type": "uint256"
        }
      ],
      "name": "giveHonors",
      "outputs": [],
      "stateMutability": "nonpayable",
      "type": "function"
    },
    {
      "inputs": [
        {
          "internalType": "address",
          "name": "_bird",
          "type": "address"
        },
        {
          "internalType": "uint256",
          "name": "_amount",
          "type": "uint256"
        }
      ],
      "name": "giveInitialSeeds",
      "outputs": [],
      "stateMutability": "nonpayable",
      "type": "function"
    },
    {
      "inputs": [],
      "name": "owner",
      "outputs": [
        {
          "internalType": "address",
          "name": "",
          "type": "address"
        }
      ],
      "stateMutability": "view",
      "type": "function"
    },
    {
      "inputs": [
        {
          "internalType": "bool",
          "name": "_consensusReached",
          "type": "bool"
        },
        {
          "internalType": "string",
          "name": "_ipfs_cid_mission2",
          "type": "string"
        },
        {
          "internalType": "address[]",
          "name": "_birds",
          "type": "address[]"
        }
      ],
      "name": "reachConsensus",
      "outputs": [],
      "stateMutability": "nonpayable",
      "type": "function"
    },
    {
      "inputs": [],
      "name": "renounceOwnership",
      "outputs": [],
      "stateMutability": "nonpayable",
      "type": "function"
    },
    {
      "inputs": [
        {
          "internalType": "uint256",
          "name": "_owl",
          "type": "uint256"
        },
        {
          "internalType": "uint256",
          "name": "_eagle",
          "type": "uint256"
        },
        {
          "internalType": "uint256",
          "name": "_peacock",
          "type": "uint256"
        },
        {
          "internalType": "uint256",
          "name": "_penguin",
          "type": "uint256"
        },
        {
          "internalType": "uint256",
          "name": "_hummingbird",
          "type": "uint256"
        },
        {
          "internalType": "address",
          "name": "_bird",
          "type": "address"
        }
      ],
      "name": "setFinalHonors",
      "outputs": [],
      "stateMutability": "nonpayable",
      "type": "function"
    },
    {
      "inputs": [],
      "name": "syncSensens",
      "outputs": [],
      "stateMutability": "nonpayable",
      "type": "function"
    },
    {
      "inputs": [
        {
          "internalType": "string",
          "name": "_ipfs_cid_mission1",
          "type": "string"
        },
        {
          "internalType": "address[]",
          "name": "_birds",
          "type": "address[]"
        }
      ],
      "name": "syncSenses",
      "outputs": [],
      "stateMutability": "nonpayable",
      "type": "function"
    },
    {
      "inputs": [
        {
          "internalType": "address",
          "name": "newOwner",
          "type": "address"
        }
      ],
      "name": "transferOwnership",
      "outputs": [],
      "stateMutability": "nonpayable",
      "type": "function"
    }
  ],
  "bytecode": "608060405234801561001057600080fd5b5061001a3361001f565b61006f565b600080546001600160a01b038381166001600160a01b0319831681178455604051919092169283917f8be0079c531659141344cd1fd0a4f28419497f9722a3daafe3b4186f6b6457e09190a35050565b6113f68061007e6000396000f3fe608060405234801561001057600080fd5b50600436106101165760003560e01c806368277240116100a2578063963b734911610071578063963b7349146102c9578063d97b4048146102dc578063f08abe9b146102ff578063f2fde38b14610312578063fd00cc591461032557600080fd5b806368277240146102735780636f77926b14610286578063715018a6146102a65780638da5cb5b146102ae57600080fd5b806340a0bc6f116100e957806340a0bc6f146101de57806347734892146101f157806359554226146102285780635fd5d70b1461025857806364f63b1e1461026b57600080fd5b80631b79da8c1461011b5780631f63b44f146101795780632eb0e1e61461017b5780633e521cc01461019b575b600080fd5b61012e610129366004610d8f565b610345565b6040516101709190600060a082019050825182526020830151602083015260408301516040830152606083015160608301526080830151608083015292915050565b60405180910390f35b005b61018e610189366004610e68565b6103d1565b6040516101709190610f01565b6101796101a9366004610f72565b6001600160a01b0316600090815260056020526040902060018101949094559383556004830155600382019290925560020155565b6101796101ec366004610fc3565b610509565b61021a6101ff366004610d8f565b6001600160a01b031660009081526004602052604090205490565b604051908152602001610170565b61024b610236366004611041565b60009081526003602052604090205460ff1690565b604051610170919061105a565b610179610266366004611109565b610653565b60015461021a565b610179610281366004611184565b61077c565b610299610294366004610d8f565b61084f565b60405161017091906111ae565b6101796109c1565b6000546040516001600160a01b039091168152602001610170565b6101796102d73660046111fa565b6109f5565b61024b6102ea366004611041565b60036020526000908152604090205460ff1681565b61017961030d366004611041565b610ac8565b610179610320366004610d8f565b610b3a565b61021a610333366004610d8f565b60046020526000908152604090205481565b6103776040518060a0016040528060008152602001600081526020016000815260200160008152602001600081525090565b506001600160a01b0316600090815260056020908152604091829020825160a0810184528154815260018201549281019290925260028101549282019290925260038201546060820152600490910154608082015290565b565b60408051808201909152606080825260208201526006826040516103f5919061125e565b908152602001604051809103902060405180604001604052908160008201805461041e9061127a565b80601f016020809104026020016040519081016040528092919081815260200182805461044a9061127a565b80156104975780601f1061046c57610100808354040283529160200191610497565b820191906000526020600020905b81548152906001019060200180831161047a57829003601f168201915b50505050508152602001600182018054806020026020016040519081016040528092919081815260200182805480156104f957602002820191906000526020600020905b81546001600160a01b031681526001909101906020018083116104db575b5050505050815250509050919050565b6040805160608101825285815260208082018590528183018490526001600160a01b0386166000908152600282529290922081518051929384936105509284920190610c85565b506020828101516001830155604083015180516105739260028501920190610c85565b50506040805160a0810182526000808252602080830182815283850183815260608501848152608086018581526001600160a01b038d16808752600586528887208851815594516001808701919091559351600286015591516003850155516004909301929092558054808201825593527fb10e2d527612073b26eecdfd717e6a320cf44b4afac2b0732d9fcbe2b7fa0cf690920180546001600160a01b0319168317905592519081529092507fa22187ec83aa1b90e4efbaa4f24ce6b70a007f97923b5878c0fb8026c2febe79910160405180910390a1505050505050565b61065d3382610bd5565b15156001146106875760405162461bcd60e51b815260040161067e906112b5565b60405180910390fd5b6001831515146106d15760405162461bcd60e51b815260206004820152601560248201527410dbdb9cd95b9cdd5cc81b9bdd081c995858da1959605a1b604482015260640161067e565b60408051808201825283815260208101839052905181906006906106f690869061125e565b90815260200160405180910390206000820151816000019080519060200190610720929190610c85565b5060208281015180516107399260018501920190610d09565b509050507f9c5c2780a8755dfa42a837fa1d2f3272cb07b4eff3717c9f0bbc1618f9f30617838560405161076e9291906112f6565b60405180910390a150505050565b6000546001600160a01b031633146107a65760405162461bcd60e51b815260040161067e9061131a565b600a8110156107f75760405162461bcd60e51b815260206004820152601f60248201527f546865204d696e696d756d20616d6f756e742073686f756c6420626520313000604482015260640161067e565b6001600160a01b038216600081815260046020908152604091829020849055815192835282018390527f02d570fba1492852e40bfa341311a0467b1ebf0d0755e4e405f2f3bac9c8a23e910160405180910390a15050565b61087360405180606001604052806060815260200160008152602001606081525090565b6001600160a01b038216600090815260026020526040908190208151606081019092528054829082906108a59061127a565b80601f01602080910402602001604051908101604052809291908181526020018280546108d19061127a565b801561091e5780601f106108f35761010080835404028352916020019161091e565b820191906000526020600020905b81548152906001019060200180831161090157829003601f168201915b50505050508152602001600182015481526020016002820180546109419061127a565b80601f016020809104026020016040519081016040528092919081815260200182805461096d9061127a565b80156104f95780601f1061098f576101008083540402835291602001916104f9565b820191906000526020600020905b81548152906001019060200180831161099d57505050919092525091949350505050565b6000546001600160a01b031633146109eb5760405162461bcd60e51b815260040161067e9061131a565b6103cf6000610c35565b6109ff3382610bd5565b1515600114610a205760405162461bcd60e51b815260040161067e906112b5565b6040805180820182528381526020810183905290518190600690610a4590869061125e565b90815260200160405180910390206000820151816000019080519060200190610a6f929190610c85565b506020828101518051610a889260018501920190610d09565b509050507f54b13326dce0f4cdd781a4f93a66e725cbdb6247cd4e6c00064c18b39d07bb3583604051610abb919061134f565b60405180910390a1505050565b80600114610ad557600080fd5b33600090815260046020526040902054610af190600190611378565b3360009081526004602090815260409182902092909255518281527f89e69b6fa2d69c7eb45b6af3918dbaa99e08cc13755f03ead1be356d699558d2910160405180910390a150565b6000546001600160a01b03163314610b645760405162461bcd60e51b815260040161067e9061131a565b6001600160a01b038116610bc95760405162461bcd60e51b815260206004820152602660248201527f4f776e61626c653a206e6577206f776e657220697320746865207a65726f206160448201526564647265737360d01b606482015260840161067e565b610bd281610c35565b50565b600080805b8351811015610c2d57846001600160a01b0316848281518110610bff57610bff61138f565b60200260200101516001600160a01b03161415610c1b57600191505b80610c25816113a5565b915050610bda565b509392505050565b600080546001600160a01b038381166001600160a01b0319831681178455604051919092169283917f8be0079c531659141344cd1fd0a4f28419497f9722a3daafe3b4186f6b6457e09190a35050565b828054610c919061127a565b90600052602060002090601f016020900481019282610cb35760008555610cf9565b82601f10610ccc57805160ff1916838001178555610cf9565b82800160010185558215610cf9579182015b82811115610cf9578251825591602001919060010190610cde565b50610d05929150610d5e565b5090565b828054828255906000526020600020908101928215610cf9579160200282015b82811115610cf957825182546001600160a01b0319166001600160a01b03909116178255602090920191600190910190610d29565b5b80821115610d055760008155600101610d5f565b80356001600160a01b0381168114610d8a57600080fd5b919050565b600060208284031215610da157600080fd5b610daa82610d73565b9392505050565b634e487b7160e01b600052604160045260246000fd5b604051601f8201601f1916810167ffffffffffffffff81118282101715610df057610df0610db1565b604052919050565b600082601f830112610e0957600080fd5b813567ffffffffffffffff811115610e2357610e23610db1565b610e36601f8201601f1916602001610dc7565b818152846020838601011115610e4b57600080fd5b816020850160208301376000918101602001919091529392505050565b600060208284031215610e7a57600080fd5b813567ffffffffffffffff811115610e9157600080fd5b610e9d84828501610df8565b949350505050565b60005b83811015610ec0578181015183820152602001610ea8565b83811115610ecf576000848401525b50505050565b60008151808452610eed816020860160208601610ea5565b601f01601f19169290920160200192915050565b600060208083528351604082850152610f1d6060850182610ed5565b85830151858203601f19016040870152805180835290840192506000918401905b80831015610f675783516001600160a01b03168252928401926001929092019190840190610f3e565b509695505050505050565b60008060008060008060c08789031215610f8b57600080fd5b8635955060208701359450604087013593506060870135925060808701359150610fb760a08801610d73565b90509295509295509295565b60008060008060808587031215610fd957600080fd5b843567ffffffffffffffff80821115610ff157600080fd5b610ffd88838901610df8565b955061100b60208801610d73565b945060408701359350606087013591508082111561102857600080fd5b5061103587828801610df8565b91505092959194509250565b60006020828403121561105357600080fd5b5035919050565b602081016003831061107c57634e487b7160e01b600052602160045260246000fd5b91905290565b600082601f83011261109357600080fd5b8135602067ffffffffffffffff8211156110af576110af610db1565b8160051b6110be828201610dc7565b92835284810182019282810190878511156110d857600080fd5b83870192505b848310156110fe576110ef83610d73565b825291830191908301906110de565b979650505050505050565b60008060006060848603121561111e57600080fd5b8335801515811461112e57600080fd5b9250602084013567ffffffffffffffff8082111561114b57600080fd5b61115787838801610df8565b9350604086013591508082111561116d57600080fd5b5061117a86828701611082565b9150509250925092565b6000806040838503121561119757600080fd5b6111a083610d73565b946020939093013593505050565b6020815260008251606060208401526111ca6080840182610ed5565b9050602084015160408401526040840151601f198483030160608501526111f18282610ed5565b95945050505050565b6000806040838503121561120d57600080fd5b823567ffffffffffffffff8082111561122557600080fd5b61123186838701610df8565b9350602085013591508082111561124757600080fd5b5061125485828601611082565b9150509250929050565b60008251611270818460208701610ea5565b9190910192915050565b600181811c9082168061128e57607f821691505b602082108114156112af57634e487b7160e01b600052602260045260246000fd5b50919050565b60208082526021908201527f5573657220646f6573206e6f7420657869737473206f6e207468652067726f756040820152600760fc1b606082015260800190565b6040815260006113096040830185610ed5565b905082151560208301529392505050565b6020808252818101527f4f776e61626c653a2063616c6c6572206973206e6f7420746865206f776e6572604082015260600190565b602081526000610daa6020830184610ed5565b634e487b7160e01b600052601160045260246000fd5b60008282101561138a5761138a611362565b500390565b634e487b7160e01b600052603260045260246000fd5b60006000198214156113b9576113b9611362565b506001019056fea2646970667358221220495901d4d1b884cb90f24cc5399b8ac183a8d04ab4208b197e56f84dcecd1b8e64736f6c634300080b0033",
  "bytecodeSha1": "a33e356962bcdd9bbe9e0480a4fa83671774e36f",
  "compiler": {
    "evm_version": "istanbul",
    "optimizer": {
      "enabled": true,
      "runs": 200
    },
    "version": "0.8.11+commit.d7f03943"
  },
  "contractName": "Wingbird",
  "language": "Solidity",
  "natspec": {
    "kind": "dev",
    "methods": {
      "owner()": {
        "details": "Returns the address of the current owner."
      },
      "renounceOwnership()": {
        "details": "Leaves the contract without owner. It will not be possible to call `onlyOwner` functions anymore. Can only be called by the current owner. NOTE: Renouncing ownership will leave the contract without an owner, thereby removing any functionality that is only available to the owner."
      },
      "transferOwnership(address)": {
        "details": "Transfers ownership of the contract to a new account (`newOwner`). Can only be called by the current owner."
      }
    },
    "version": 1
  },
  "opcodes": "PUSH1 0x80 PUSH1 0x40 MSTORE CALLVALUE DUP1 ISZERO PUSH2 0x10 JUMPI PUSH1 0x0 DUP1 REVERT JUMPDEST POP PUSH1 0x4 CALLDATASIZE LT PUSH2 0x116 JUMPI PUSH1 0x0 CALLDATALOAD PUSH1 0xE0 SHR DUP1 PUSH4 0x68277240 GT PUSH2 0xA2 JUMPI DUP1 PUSH4 0x963B7349 GT PUSH2 0x71 JUMPI DUP1 PUSH4 0x963B7349 EQ PUSH2 0x2C9 JUMPI DUP1 PUSH4 0xD97B4048 EQ PUSH2 0x2DC JUMPI DUP1 PUSH4 0xF08ABE9B EQ PUSH2 0x2FF JUMPI DUP1 PUSH4 0xF2FDE38B EQ PUSH2 0x312 JUMPI DUP1 PUSH4 0xFD00CC59 EQ PUSH2 0x325 JUMPI PUSH1 0x0 DUP1 REVERT JUMPDEST DUP1 PUSH4 0x68277240 EQ PUSH2 0x273 JUMPI DUP1 PUSH4 0x6F77926B EQ PUSH2 0x286 JUMPI DUP1 PUSH4 0x715018A6 EQ PUSH2 0x2A6 JUMPI DUP1 PUSH4 0x8DA5CB5B EQ PUSH2 0x2AE JUMPI PUSH1 0x0 DUP1 REVERT JUMPDEST DUP1 PUSH4 0x40A0BC6F GT PUSH2 0xE9 JUMPI DUP1 PUSH4 0x40A0BC6F EQ PUSH2 0x1DE JUMPI DUP1 PUSH4 0x47734892 EQ PUSH2 0x1F1 JUMPI DUP1 PUSH4 0x59554226 EQ PUSH2 0x228 JUMPI DUP1 PUSH4 0x5FD5D70B EQ PUSH2 0x258 JUMPI DUP1 PUSH4 0x64F63B1E EQ PUSH2 0x26B JUMPI PUSH1 0x0 DUP1 REVERT JUMPDEST DUP1 PUSH4 0x1B79DA8C EQ PUSH2 0x11B JUMPI DUP1 PUSH4 0x1F63B44F EQ PUSH2 0x179 JUMPI DUP1 PUSH4 0x2EB0E1E6 EQ PUSH2 0x17B JUMPI DUP1 PUSH4 0x3E521CC0 EQ PUSH2 0x19B JUMPI JUMPDEST PUSH1 0x0 DUP1 REVERT JUMPDEST PUSH2 0x12E PUSH2 0x129 CALLDATASIZE PUSH1 0x4 PUSH2 0xD8F JUMP JUMPDEST PUSH2 0x345 JUMP JUMPDEST PUSH1 0x40 MLOAD PUSH2 0x170 SWAP2 SWAP1 PUSH1 0x0 PUSH1 0xA0 DUP3 ADD SWAP1 POP DUP3 MLOAD DUP3 MSTORE PUSH1 0x20 DUP4 ADD MLOAD PUSH1 0x20 DUP4 ADD MSTORE PUSH1 0x40 DUP4 ADD MLOAD PUSH1 0x40 DUP4 ADD MSTORE PUSH1 0x60 DUP4 ADD MLOAD PUSH1 0x60 DUP4 ADD MSTORE PUSH1 0x80 DUP4 ADD MLOAD PUSH1 0x80 DUP4 ADD MSTORE SWAP3 SWAP2 POP POP JUMP JUMPDEST PUSH1 0x40 MLOAD DUP1 SWAP2 SUB SWAP1 RETURN JUMPDEST STOP JUMPDEST PUSH2 0x18E PUSH2 0x189 CALLDATASIZE PUSH1 0x4 PUSH2 0xE68 JUMP JUMPDEST PUSH2 0x3D1 JUMP JUMPDEST PUSH1 0x40 MLOAD PUSH2 0x170 SWAP2 SWAP1 PUSH2 0xF01 JUMP JUMPDEST PUSH2 0x179 PUSH2 0x1A9 CALLDATASIZE PUSH1 0x4 PUSH2 0xF72 JUMP JUMPDEST PUSH1 0x1 PUSH1 0x1 PUSH1 0xA0 SHL SUB AND PUSH1 0x0 SWAP1 DUP2 MSTORE PUSH1 0x5 PUSH1 0x20 MSTORE PUSH1 0x40 SWAP1 KECCAK256 PUSH1 0x1 DUP2 ADD SWAP5 SWAP1 SWAP5 SSTORE SWAP4 DUP4 SSTORE PUSH1 0x4 DUP4 ADD SSTORE PUSH1 0x3 DUP3 ADD SWAP3 SWAP1 SWAP3 SSTORE PUSH1 0x2 ADD SSTORE JUMP JUMPDEST PUSH2 0x179 PUSH2 0x1EC CALLDATASIZE PUSH1 0x4 PUSH2 0xFC3 JUMP JUMPDEST PUSH2 0x509 JUMP JUMPDEST PUSH2 0x21A PUSH2 0x1FF CALLDATASIZE PUSH1 0x4 PUSH2 0xD8F JUMP JUMPDEST PUSH1 0x1 PUSH1 0x1 PUSH1 0xA0 SHL SUB AND PUSH1 0x0 SWAP1 DUP2 MSTORE PUSH1 0x4 PUSH1 0x20 MSTORE PUSH1 0x40 SWAP1 KECCAK256 SLOAD SWAP1 JUMP JUMPDEST PUSH1 0x40 MLOAD SWAP1 DUP2 MSTORE PUSH1 0x20 ADD PUSH2 0x170 JUMP JUMPDEST PUSH2 0x24B PUSH2 0x236 CALLDATASIZE PUSH1 0x4 PUSH2 0x1041 JUMP JUMPDEST PUSH1 0x0 SWAP1 DUP2 MSTORE PUSH1 0x3 PUSH1 0x20 MSTORE PUSH1 0x40 SWAP1 KECCAK256 SLOAD PUSH1 0xFF AND SWAP1 JUMP JUMPDEST PUSH1 0x40 MLOAD PUSH2 0x170 SWAP2 SWAP1 PUSH2 0x105A JUMP JUMPDEST PUSH2 0x179 PUSH2 0x266 CALLDATASIZE PUSH1 0x4 PUSH2 0x1109 JUMP JUMPDEST PUSH2 0x653 JUMP JUMPDEST PUSH1 0x1 SLOAD PUSH2 0x21A JUMP JUMPDEST PUSH2 0x179 PUSH2 0x281 CALLDATASIZE PUSH1 0x4 PUSH2 0x1184 JUMP JUMPDEST PUSH2 0x77C JUMP JUMPDEST PUSH2 0x299 PUSH2 0x294 CALLDATASIZE PUSH1 0x4 PUSH2 0xD8F JUMP JUMPDEST PUSH2 0x84F JUMP JUMPDEST PUSH1 0x40 MLOAD PUSH2 0x170 SWAP2 SWAP1 PUSH2 0x11AE JUMP JUMPDEST PUSH2 0x179 PUSH2 0x9C1 JUMP JUMPDEST PUSH1 0x0 SLOAD PUSH1 0x40 MLOAD PUSH1 0x1 PUSH1 0x1 PUSH1 0xA0 SHL SUB SWAP1 SWAP2 AND DUP2 MSTORE PUSH1 0x20 ADD PUSH2 0x170 JUMP JUMPDEST PUSH2 0x179 PUSH2 0x2D7 CALLDATASIZE PUSH1 0x4 PUSH2 0x11FA JUMP JUMPDEST PUSH2 0x9F5 JUMP JUMPDEST PUSH2 0x24B PUSH2 0x2EA CALLDATASIZE PUSH1 0x4 PUSH2 0x1041 JUMP JUMPDEST PUSH1 0x3 PUSH1 0x20 MSTORE PUSH1 0x0 SWAP1 DUP2 MSTORE PUSH1 0x40 SWAP1 KECCAK256 SLOAD PUSH1 0xFF AND DUP2 JUMP JUMPDEST PUSH2 0x179 PUSH2 0x30D CALLDATASIZE PUSH1 0x4 PUSH2 0x1041 JUMP JUMPDEST PUSH2 0xAC8 JUMP JUMPDEST PUSH2 0x179 PUSH2 0x320 CALLDATASIZE PUSH1 0x4 PUSH2 0xD8F JUMP JUMPDEST PUSH2 0xB3A JUMP JUMPDEST PUSH2 0x21A PUSH2 0x333 CALLDATASIZE PUSH1 0x4 PUSH2 0xD8F JUMP JUMPDEST PUSH1 0x4 PUSH1 0x20 MSTORE PUSH1 0x0 SWAP1 DUP2 MSTORE PUSH1 0x40 SWAP1 KECCAK256 SLOAD DUP2 JUMP JUMPDEST PUSH2 0x377 PUSH1 0x40 MLOAD DUP1 PUSH1 0xA0 ADD PUSH1 0x40 MSTORE DUP1 PUSH1 0x0 DUP2 MSTORE PUSH1 0x20 ADD PUSH1 0x0 DUP2 MSTORE PUSH1 0x20 ADD PUSH1 0x0 DUP2 MSTORE PUSH1 0x20 ADD PUSH1 0x0 DUP2 MSTORE PUSH1 0x20 ADD PUSH1 0x0 DUP2 MSTORE POP SWAP1 JUMP JUMPDEST POP PUSH1 0x1 PUSH1 0x1 PUSH1 0xA0 SHL SUB AND PUSH1 0x0 SWAP1 DUP2 MSTORE PUSH1 0x5 PUSH1 0x20 SWAP1 DUP2 MSTORE PUSH1 0x40 SWAP2 DUP3 SWAP1 KECCAK256 DUP3 MLOAD PUSH1 0xA0 DUP2 ADD DUP5 MSTORE DUP2 SLOAD DUP2 MSTORE PUSH1 0x1 DUP3 ADD SLOAD SWAP3 DUP2 ADD SWAP3 SWAP1 SWAP3 MSTORE PUSH1 0x2 DUP2 ADD SLOAD SWAP3 DUP3 ADD SWAP3 SWAP1 SWAP3 MSTORE PUSH1 0x3 DUP3 ADD SLOAD PUSH1 0x60 DUP3 ADD MSTORE PUSH1 0x4 SWAP1 SWAP2 ADD SLOAD PUSH1 0x80 DUP3 ADD MSTORE SWAP1 JUMP JUMPDEST JUMP JUMPDEST PUSH1 0x40 DUP1 MLOAD DUP1 DUP3 ADD SWAP1 SWAP2 MSTORE PUSH1 0x60 DUP1 DUP3 MSTORE PUSH1 0x20 DUP3 ADD MSTORE PUSH1 0x6 DUP3 PUSH1 0x40 MLOAD PUSH2 0x3F5 SWAP2 SWAP1 PUSH2 0x125E JUMP JUMPDEST SWAP1 DUP2 MSTORE PUSH1 0x20 ADD PUSH1 0x40 MLOAD DUP1 SWAP2 SUB SWAP1 KECCAK256 PUSH1 0x40 MLOAD DUP1 PUSH1 0x40 ADD PUSH1 0x40 MSTORE SWAP1 DUP2 PUSH1 0x0 DUP3 ADD DUP1 SLOAD PUSH2 0x41E SWAP1 PUSH2 0x127A JUMP JUMPDEST DUP1 PUSH1 0x1F ADD PUSH1 0x20 DUP1 SWAP2 DIV MUL PUSH1 0x20 ADD PUSH1 0x40 MLOAD SWAP1 DUP2 ADD PUSH1 0x40 MSTORE DUP1 SWAP3 SWAP2 SWAP1 DUP2 DUP2 MSTORE PUSH1 0x20 ADD DUP3 DUP1 SLOAD PUSH2 0x44A SWAP1 PUSH2 0x127A JUMP JUMPDEST DUP1 ISZERO PUSH2 0x497 JUMPI DUP1 PUSH1 0x1F LT PUSH2 0x46C JUMPI PUSH2 0x100 DUP1 DUP4 SLOAD DIV MUL DUP4 MSTORE SWAP2 PUSH1 0x20 ADD SWAP2 PUSH2 0x497 JUMP JUMPDEST DUP3 ADD SWAP2 SWAP1 PUSH1 0x0 MSTORE PUSH1 0x20 PUSH1 0x0 KECCAK256 SWAP1 JUMPDEST DUP2 SLOAD DUP2 MSTORE SWAP1 PUSH1 0x1 ADD SWAP1 PUSH1 0x20 ADD DUP1 DUP4 GT PUSH2 0x47A JUMPI DUP3 SWAP1 SUB PUSH1 0x1F AND DUP3 ADD SWAP2 JUMPDEST POP POP POP POP POP DUP2 MSTORE PUSH1 0x20 ADD PUSH1 0x1 DUP3 ADD DUP1 SLOAD DUP1 PUSH1 0x20 MUL PUSH1 0x20 ADD PUSH1 0x40 MLOAD SWAP1 DUP2 ADD PUSH1 0x40 MSTORE DUP1 SWAP3 SWAP2 SWAP1 DUP2 DUP2 MSTORE PUSH1 0x20 ADD DUP3 DUP1 SLOAD DUP1 ISZERO PUSH2 0x4F9 JUMPI PUSH1 0x20 MUL DUP3 ADD SWAP2 SWAP1 PUSH1 0x0 MSTORE PUSH1 0x20 PUSH1 0x0 KECCAK256 SWAP1 JUMPDEST DUP2 SLOAD PUSH1 0x1 PUSH1 0x1 PUSH1 0xA0 SHL SUB AND DUP2 MSTORE PUSH1 0x1 SWAP1 SWAP2 ADD SWAP1 PUSH1 0x20 ADD DUP1 DUP4 GT PUSH2 0x4DB JUMPI JUMPDEST POP POP POP POP POP DUP2 MSTORE POP POP SWAP1 POP SWAP2 SWAP1 POP JUMP JUMPDEST PUSH1 0x40 DUP1 MLOAD PUSH1 0x60 DUP2 ADD DUP3 MSTORE DUP6 DUP2 MSTORE PUSH1 0x20 DUP1 DUP3 ADD DUP6 SWAP1 MSTORE DUP2 DUP4 ADD DUP5 SWAP1 MSTORE PUSH1 0x1 PUSH1 0x1 PUSH1 0xA0 SHL SUB DUP7 AND PUSH1 0x0 SWAP1 DUP2 MSTORE PUSH1 0x2 DUP3 MSTORE SWAP3 SWAP1 SWAP3 KECCAK256 DUP2 MLOAD DUP1 MLOAD SWAP3 SWAP4 DUP5 SWAP4 PUSH2 0x550 SWAP3 DUP5 SWAP3 ADD SWAP1 PUSH2 0xC85 JUMP JUMPDEST POP PUSH1 0x20 DUP3 DUP2 ADD MLOAD PUSH1 0x1 DUP4 ADD SSTORE PUSH1 0x40 DUP4 ADD MLOAD DUP1 MLOAD PUSH2 0x573 SWAP3 PUSH1 0x2 DUP6 ADD SWAP3 ADD SWAP1 PUSH2 0xC85 JUMP JUMPDEST POP POP PUSH1 0x40 DUP1 MLOAD PUSH1 0xA0 DUP2 ADD DUP3 MSTORE PUSH1 0x0 DUP1 DUP3 MSTORE PUSH1 0x20 DUP1 DUP4 ADD DUP3 DUP2 MSTORE DUP4 DUP6 ADD DUP4 DUP2 MSTORE PUSH1 0x60 DUP6 ADD DUP5 DUP2 MSTORE PUSH1 0x80 DUP7 ADD DUP6 DUP2 MSTORE PUSH1 0x1 PUSH1 0x1 PUSH1 0xA0 SHL SUB DUP14 AND DUP1 DUP8 MSTORE PUSH1 0x5 DUP7 MSTORE DUP9 DUP8 KECCAK256 DUP9 MLOAD DUP2 SSTORE SWAP5 MLOAD PUSH1 0x1 DUP1 DUP8 ADD SWAP2 SWAP1 SWAP2 SSTORE SWAP4 MLOAD PUSH1 0x2 DUP7 ADD SSTORE SWAP2 MLOAD PUSH1 0x3 DUP6 ADD SSTORE MLOAD PUSH1 0x4 SWAP1 SWAP4 ADD SWAP3 SWAP1 SWAP3 SSTORE DUP1 SLOAD DUP1 DUP3 ADD DUP3 SSTORE SWAP4 MSTORE PUSH32 0xB10E2D527612073B26EECDFD717E6A320CF44B4AFAC2B0732D9FCBE2B7FA0CF6 SWAP1 SWAP3 ADD DUP1 SLOAD PUSH1 0x1 PUSH1 0x1 PUSH1 0xA0 SHL SUB NOT AND DUP4 OR SWAP1 SSTORE SWAP3 MLOAD SWAP1 DUP2 MSTORE SWAP1 SWAP3 POP PUSH32 0xA22187EC83AA1B90E4EFBAA4F24CE6B70A007F97923B5878C0FB8026C2FEBE79 SWAP2 ADD PUSH1 0x40 MLOAD DUP1 SWAP2 SUB SWAP1 LOG1 POP POP POP POP POP POP JUMP JUMPDEST PUSH2 0x65D CALLER DUP3 PUSH2 0xBD5 JUMP JUMPDEST ISZERO ISZERO PUSH1 0x1 EQ PUSH2 0x687 JUMPI PUSH1 0x40 MLOAD PUSH3 0x461BCD PUSH1 0xE5 SHL DUP2 MSTORE PUSH1 0x4 ADD PUSH2 0x67E SWAP1 PUSH2 0x12B5 JUMP JUMPDEST PUSH1 0x40 MLOAD DUP1 SWAP2 SUB SWAP1 REVERT JUMPDEST PUSH1 0x1 DUP4 ISZERO ISZERO EQ PUSH2 0x6D1 JUMPI PUSH1 0x40 MLOAD PUSH3 0x461BCD PUSH1 0xE5 SHL DUP2 MSTORE PUSH1 0x20 PUSH1 0x4 DUP3 ADD MSTORE PUSH1 0x15 PUSH1 0x24 DUP3 ADD MSTORE PUSH21 0x10DBDB9CD95B9CDD5CC81B9BDD081C995858DA1959 PUSH1 0x5A SHL PUSH1 0x44 DUP3 ADD MSTORE PUSH1 0x64 ADD PUSH2 0x67E JUMP JUMPDEST PUSH1 0x40 DUP1 MLOAD DUP1 DUP3 ADD DUP3 MSTORE DUP4 DUP2 MSTORE PUSH1 0x20 DUP2 ADD DUP4 SWAP1 MSTORE SWAP1 MLOAD DUP2 SWAP1 PUSH1 0x6 SWAP1 PUSH2 0x6F6 SWAP1 DUP7 SWAP1 PUSH2 0x125E JUMP JUMPDEST SWAP1 DUP2 MSTORE PUSH1 0x20 ADD PUSH1 0x40 MLOAD DUP1 SWAP2 SUB SWAP1 KECCAK256 PUSH1 0x0 DUP3 ADD MLOAD DUP2 PUSH1 0x0 ADD SWAP1 DUP1 MLOAD SWAP1 PUSH1 0x20 ADD SWAP1 PUSH2 0x720 SWAP3 SWAP2 SWAP1 PUSH2 0xC85 JUMP JUMPDEST POP PUSH1 0x20 DUP3 DUP2 ADD MLOAD DUP1 MLOAD PUSH2 0x739 SWAP3 PUSH1 0x1 DUP6 ADD SWAP3 ADD SWAP1 PUSH2 0xD09 JUMP JUMPDEST POP SWAP1 POP POP PUSH32 0x9C5C2780A8755DFA42A837FA1D2F3272CB07B4EFF3717C9F0BBC1618F9F30617 DUP4 DUP6 PUSH1 0x40 MLOAD PUSH2 0x76E SWAP3 SWAP2 SWAP1 PUSH2 0x12F6 JUMP JUMPDEST PUSH1 0x40 MLOAD DUP1 SWAP2 SUB SWAP1 LOG1 POP POP POP POP JUMP JUMPDEST PUSH1 0x0 SLOAD PUSH1 0x1 PUSH1 0x1 PUSH1 0xA0 SHL SUB AND CALLER EQ PUSH2 0x7A6 JUMPI PUSH1 0x40 MLOAD PUSH3 0x461BCD PUSH1 0xE5 SHL DUP2 MSTORE PUSH1 0x4 ADD PUSH2 0x67E SWAP1 PUSH2 0x131A JUMP JUMPDEST PUSH1 0xA DUP2 LT ISZERO PUSH2 0x7F7 JUMPI PUSH1 0x40 MLOAD PUSH3 0x461BCD PUSH1 0xE5 SHL DUP2 MSTORE PUSH1 0x20 PUSH1 0x4 DUP3 ADD MSTORE PUSH1 0x1F PUSH1 0x24 DUP3 ADD MSTORE PUSH32 0x546865204D696E696D756D20616D6F756E742073686F756C6420626520313000 PUSH1 0x44 DUP3 ADD MSTORE PUSH1 0x64 ADD PUSH2 0x67E JUMP JUMPDEST PUSH1 0x1 PUSH1 0x1 PUSH1 0xA0 SHL SUB DUP3 AND PUSH1 0x0 DUP2 DUP2 MSTORE PUSH1 0x4 PUSH1 0x20 SWAP1 DUP2 MSTORE PUSH1 0x40 SWAP2 DUP3 SWAP1 KECCAK256 DUP5 SWAP1 SSTORE DUP2 MLOAD SWAP3 DUP4 MSTORE DUP3 ADD DUP4 SWAP1 MSTORE PUSH32 0x2D570FBA1492852E40BFA341311A0467B1EBF0D0755E4E405F2F3BAC9C8A23E SWAP2 ADD PUSH1 0x40 MLOAD DUP1 SWAP2 SUB SWAP1 LOG1 POP POP JUMP JUMPDEST PUSH2 0x873 PUSH1 0x40 MLOAD DUP1 PUSH1 0x60 ADD PUSH1 0x40 MSTORE DUP1 PUSH1 0x60 DUP2 MSTORE PUSH1 0x20 ADD PUSH1 0x0 DUP2 MSTORE PUSH1 0x20 ADD PUSH1 0x60 DUP2 MSTORE POP SWAP1 JUMP JUMPDEST PUSH1 0x1 PUSH1 0x1 PUSH1 0xA0 SHL SUB DUP3 AND PUSH1 0x0 SWAP1 DUP2 MSTORE PUSH1 0x2 PUSH1 0x20 MSTORE PUSH1 0x40 SWAP1 DUP2 SWAP1 KECCAK256 DUP2 MLOAD PUSH1 0x60 DUP2 ADD SWAP1 SWAP3 MSTORE DUP1 SLOAD DUP3 SWAP1 DUP3 SWAP1 PUSH2 0x8A5 SWAP1 PUSH2 0x127A JUMP JUMPDEST DUP1 PUSH1 0x1F ADD PUSH1 0x20 DUP1 SWAP2 DIV MUL PUSH1 0x20 ADD PUSH1 0x40 MLOAD SWAP1 DUP2 ADD PUSH1 0x40 MSTORE DUP1 SWAP3 SWAP2 SWAP1 DUP2 DUP2 MSTORE PUSH1 0x20 ADD DUP3 DUP1 SLOAD PUSH2 0x8D1 SWAP1 PUSH2 0x127A JUMP JUMPDEST DUP1 ISZERO PUSH2 0x91E JUMPI DUP1 PUSH1 0x1F LT PUSH2 0x8F3 JUMPI PUSH2 0x100 DUP1 DUP4 SLOAD DIV MUL DUP4 MSTORE SWAP2 PUSH1 0x20 ADD SWAP2 PUSH2 0x91E JUMP JUMPDEST DUP3 ADD SWAP2 SWAP1 PUSH1 0x0 MSTORE PUSH1 0x20 PUSH1 0x0 KECCAK256 SWAP1 JUMPDEST DUP2 SLOAD DUP2 MSTORE SWAP1 PUSH1 0x1 ADD SWAP1 PUSH1 0x20 ADD DUP1 DUP4 GT PUSH2 0x901 JUMPI DUP3 SWAP1 SUB PUSH1 0x1F AND DUP3 ADD SWAP2 JUMPDEST POP POP POP POP POP DUP2 MSTORE PUSH1 0x20 ADD PUSH1 0x1 DUP3 ADD SLOAD DUP2 MSTORE PUSH1 0x20 ADD PUSH1 0x2 DUP3 ADD DUP1 SLOAD PUSH2 0x941 SWAP1 PUSH2 0x127A JUMP JUMPDEST DUP1 PUSH1 0x1F ADD PUSH1 0x20 DUP1 SWAP2 DIV MUL PUSH1 0x20 ADD PUSH1 0x40 MLOAD SWAP1 DUP2 ADD PUSH1 0x40 MSTORE DUP1 SWAP3 SWAP2 SWAP1 DUP2 DUP2 MSTORE PUSH1 0x20 ADD DUP3 DUP1 SLOAD PUSH2 0x96D SWAP1 PUSH2 0x127A JUMP JUMPDEST DUP1 ISZERO PUSH2 0x4F9 JUMPI DUP1 PUSH1 0x1F LT PUSH2 0x98F JUMPI PUSH2 0x100 DUP1 DUP4 SLOAD DIV MUL DUP4 MSTORE SWAP2 PUSH1 0x20 ADD SWAP2 PUSH2 0x4F9 JUMP JUMPDEST DUP3 ADD SWAP2 SWAP1 PUSH1 0x0 MSTORE PUSH1 0x20 PUSH1 0x0 KECCAK256 SWAP1 JUMPDEST DUP2 SLOAD DUP2 MSTORE SWAP1 PUSH1 0x1 ADD SWAP1 PUSH1 0x20 ADD DUP1 DUP4 GT PUSH2 0x99D JUMPI POP POP POP SWAP2 SWAP1 SWAP3 MSTORE POP SWAP2 SWAP5 SWAP4 POP POP POP POP JUMP JUMPDEST PUSH1 0x0 SLOAD PUSH1 0x1 PUSH1 0x1 PUSH1 0xA0 SHL SUB AND CALLER EQ PUSH2 0x9EB JUMPI PUSH1 0x40 MLOAD PUSH3 0x461BCD PUSH1 0xE5 SHL DUP2 MSTORE PUSH1 0x4 ADD PUSH2 0x67E SWAP1 PUSH2 0x131A JUMP JUMPDEST PUSH2 0x3CF PUSH1 0x0 PUSH2 0xC35 JUMP JUMPDEST PUSH2 0x9FF CALLER DUP3 PUSH2 0xBD5 JUMP JUMPDEST ISZERO ISZERO PUSH1 0x1 EQ PUSH2 0xA20 JUMPI PUSH1 0x40 MLOAD PUSH3 0x461BCD PUSH1 0xE5 SHL DUP2 MSTORE PUSH1 0x4 ADD PUSH2 0x67E SWAP1 PUSH2 0x12B5 JUMP JUMPDEST PUSH1 0x40 DUP1 MLOAD DUP1 DUP3 ADD DUP3 MSTORE DUP4 DUP2 MSTORE PUSH1 0x20 DUP2 ADD DUP4 SWAP1 MSTORE SWAP1 MLOAD DUP2 SWAP1 PUSH1 0x6 SWAP1 PUSH2 0xA45 SWAP1 DUP7 SWAP1 PUSH2 0x125E JUMP JUMPDEST SWAP1 DUP2 MSTORE PUSH1 0x20 ADD PUSH1 0x40 MLOAD DUP1 SWAP2 SUB SWAP1 KECCAK256 PUSH1 0x0 DUP3 ADD MLOAD DUP2 PUSH1 0x0 ADD SWAP1 DUP1 MLOAD SWAP1 PUSH1 0x20 ADD SWAP1 PUSH2 0xA6F SWAP3 SWAP2 SWAP1 PUSH2 0xC85 JUMP JUMPDEST POP PUSH1 0x20 DUP3 DUP2 ADD MLOAD DUP1 MLOAD PUSH2 0xA88 SWAP3 PUSH1 0x1 DUP6 ADD SWAP3 ADD SWAP1 PUSH2 0xD09 JUMP JUMPDEST POP SWAP1 POP POP PUSH32 0x54B13326DCE0F4CDD781A4F93A66E725CBDB6247CD4E6C00064C18B39D07BB35 DUP4 PUSH1 0x40 MLOAD PUSH2 0xABB SWAP2 SWAP1 PUSH2 0x134F JUMP JUMPDEST PUSH1 0x40 MLOAD DUP1 SWAP2 SUB SWAP1 LOG1 POP POP POP JUMP JUMPDEST DUP1 PUSH1 0x1 EQ PUSH2 0xAD5 JUMPI PUSH1 0x0 DUP1 REVERT JUMPDEST CALLER PUSH1 0x0 SWAP1 DUP2 MSTORE PUSH1 0x4 PUSH1 0x20 MSTORE PUSH1 0x40 SWAP1 KECCAK256 SLOAD PUSH2 0xAF1 SWAP1 PUSH1 0x1 SWAP1 PUSH2 0x1378 JUMP JUMPDEST CALLER PUSH1 0x0 SWAP1 DUP2 MSTORE PUSH1 0x4 PUSH1 0x20 SWAP1 DUP2 MSTORE PUSH1 0x40 SWAP2 DUP3 SWAP1 KECCAK256 SWAP3 SWAP1 SWAP3 SSTORE MLOAD DUP3 DUP2 MSTORE PUSH32 0x89E69B6FA2D69C7EB45B6AF3918DBAA99E08CC13755F03EAD1BE356D699558D2 SWAP2 ADD PUSH1 0x40 MLOAD DUP1 SWAP2 SUB SWAP1 LOG1 POP JUMP JUMPDEST PUSH1 0x0 SLOAD PUSH1 0x1 PUSH1 0x1 PUSH1 0xA0 SHL SUB AND CALLER EQ PUSH2 0xB64 JUMPI PUSH1 0x40 MLOAD PUSH3 0x461BCD PUSH1 0xE5 SHL DUP2 MSTORE PUSH1 0x4 ADD PUSH2 0x67E SWAP1 PUSH2 0x131A JUMP JUMPDEST PUSH1 0x1 PUSH1 0x1 PUSH1 0xA0 SHL SUB DUP2 AND PUSH2 0xBC9 JUMPI PUSH1 0x40 MLOAD PUSH3 0x461BCD PUSH1 0xE5 SHL DUP2 MSTORE PUSH1 0x20 PUSH1 0x4 DUP3 ADD MSTORE PUSH1 0x26 PUSH1 0x24 DUP3 ADD MSTORE PUSH32 0x4F776E61626C653A206E6577206F776E657220697320746865207A65726F2061 PUSH1 0x44 DUP3 ADD MSTORE PUSH6 0x646472657373 PUSH1 0xD0 SHL PUSH1 0x64 DUP3 ADD MSTORE PUSH1 0x84 ADD PUSH2 0x67E JUMP JUMPDEST PUSH2 0xBD2 DUP2 PUSH2 0xC35 JUMP JUMPDEST POP JUMP JUMPDEST PUSH1 0x0 DUP1 DUP1 JUMPDEST DUP4 MLOAD DUP2 LT ISZERO PUSH2 0xC2D JUMPI DUP5 PUSH1 0x1 PUSH1 0x1 PUSH1 0xA0 SHL SUB AND DUP5 DUP3 DUP2 MLOAD DUP2 LT PUSH2 0xBFF JUMPI PUSH2 0xBFF PUSH2 0x138F JUMP JUMPDEST PUSH1 0x20 MUL PUSH1 0x20 ADD ADD MLOAD PUSH1 0x1 PUSH1 0x1 PUSH1 0xA0 SHL SUB AND EQ ISZERO PUSH2 0xC1B JUMPI PUSH1 0x1 SWAP2 POP JUMPDEST DUP1 PUSH2 0xC25 DUP2 PUSH2 0x13A5 JUMP JUMPDEST SWAP2 POP POP PUSH2 0xBDA JUMP JUMPDEST POP SWAP4 SWAP3 POP POP POP JUMP JUMPDEST PUSH1 0x0 DUP1 SLOAD PUSH1 0x1 PUSH1 0x1 PUSH1 0xA0 SHL SUB DUP4 DUP2 AND PUSH1 0x1 PUSH1 0x1 PUSH1 0xA0 SHL SUB NOT DUP4 AND DUP2 OR DUP5 SSTORE PUSH1 0x40 MLOAD SWAP2 SWAP1 SWAP3 AND SWAP3 DUP4 SWAP2 PUSH32 0x8BE0079C531659141344CD1FD0A4F28419497F9722A3DAAFE3B4186F6B6457E0 SWAP2 SWAP1 LOG3 POP POP JUMP JUMPDEST DUP3 DUP1 SLOAD PUSH2 0xC91 SWAP1 PUSH2 0x127A JUMP JUMPDEST SWAP1 PUSH1 0x0 MSTORE PUSH1 0x20 PUSH1 0x0 KECCAK256 SWAP1 PUSH1 0x1F ADD PUSH1 0x20 SWAP1 DIV DUP2 ADD SWAP3 DUP3 PUSH2 0xCB3 JUMPI PUSH1 0x0 DUP6 SSTORE PUSH2 0xCF9 JUMP JUMPDEST DUP3 PUSH1 0x1F LT PUSH2 0xCCC JUMPI DUP1 MLOAD PUSH1 0xFF NOT AND DUP4 DUP1 ADD OR DUP6 SSTORE PUSH2 0xCF9 JUMP JUMPDEST DUP3 DUP1 ADD PUSH1 0x1 ADD DUP6 SSTORE DUP3 ISZERO PUSH2 0xCF9 JUMPI SWAP2 DUP3 ADD JUMPDEST DUP3 DUP2 GT ISZERO PUSH2 0xCF9 JUMPI DUP3 MLOAD DUP3 SSTORE SWAP2 PUSH1 0x20 ADD SWAP2 SWAP1 PUSH1 0x1 ADD SWAP1 PUSH2 0xCDE JUMP JUMPDEST POP PUSH2 0xD05 SWAP3 SWAP2 POP PUSH2 0xD5E JUMP JUMPDEST POP SWAP1 JUMP JUMPDEST DUP3 DUP1 SLOAD DUP3 DUP3 SSTORE SWAP1 PUSH1 0x0 MSTORE PUSH1 0x20 PUSH1 0x0 KECCAK256 SWAP1 DUP2 ADD SWAP3 DUP3 ISZERO PUSH2 0xCF9 JUMPI SWAP2 PUSH1 0x20 MUL DUP3 ADD JUMPDEST DUP3 DUP2 GT ISZERO PUSH2 0xCF9 JUMPI DUP3 MLOAD DUP3 SLOAD PUSH1 0x1 PUSH1 0x1 PUSH1 0xA0 SHL SUB NOT AND PUSH1 0x1 PUSH1 0x1 PUSH1 0xA0 SHL SUB SWAP1 SWAP2 AND OR DUP3 SSTORE PUSH1 0x20 SWAP1 SWAP3 ADD SWAP2 PUSH1 0x1 SWAP1 SWAP2 ADD SWAP1 PUSH2 0xD29 JUMP JUMPDEST JUMPDEST DUP1 DUP3 GT ISZERO PUSH2 0xD05 JUMPI PUSH1 0x0 DUP2 SSTORE PUSH1 0x1 ADD PUSH2 0xD5F JUMP JUMPDEST DUP1 CALLDATALOAD PUSH1 0x1 PUSH1 0x1 PUSH1 0xA0 SHL SUB DUP2 AND DUP2 EQ PUSH2 0xD8A JUMPI PUSH1 0x0 DUP1 REVERT JUMPDEST SWAP2 SWAP1 POP JUMP JUMPDEST PUSH1 0x0 PUSH1 0x20 DUP3 DUP5 SUB SLT ISZERO PUSH2 0xDA1 JUMPI PUSH1 0x0 DUP1 REVERT JUMPDEST PUSH2 0xDAA DUP3 PUSH2 0xD73 JUMP JUMPDEST SWAP4 SWAP3 POP POP POP JUMP JUMPDEST PUSH4 0x4E487B71 PUSH1 0xE0 SHL PUSH1 0x0 MSTORE PUSH1 0x41 PUSH1 0x4 MSTORE PUSH1 0x24 PUSH1 0x0 REVERT JUMPDEST PUSH1 0x40 MLOAD PUSH1 0x1F DUP3 ADD PUSH1 0x1F NOT AND DUP2 ADD PUSH8 0xFFFFFFFFFFFFFFFF DUP2 GT DUP3 DUP3 LT OR ISZERO PUSH2 0xDF0 JUMPI PUSH2 0xDF0 PUSH2 0xDB1 JUMP JUMPDEST PUSH1 0x40 MSTORE SWAP2 SWAP1 POP JUMP JUMPDEST PUSH1 0x0 DUP3 PUSH1 0x1F DUP4 ADD SLT PUSH2 0xE09 JUMPI PUSH1 0x0 DUP1 REVERT JUMPDEST DUP2 CALLDATALOAD PUSH8 0xFFFFFFFFFFFFFFFF DUP2 GT ISZERO PUSH2 0xE23 JUMPI PUSH2 0xE23 PUSH2 0xDB1 JUMP JUMPDEST PUSH2 0xE36 PUSH1 0x1F DUP3 ADD PUSH1 0x1F NOT AND PUSH1 0x20 ADD PUSH2 0xDC7 JUMP JUMPDEST DUP2 DUP2 MSTORE DUP5 PUSH1 0x20 DUP4 DUP7 ADD ADD GT ISZERO PUSH2 0xE4B JUMPI PUSH1 0x0 DUP1 REVERT JUMPDEST DUP2 PUSH1 0x20 DUP6 ADD PUSH1 0x20 DUP4 ADD CALLDATACOPY PUSH1 0x0 SWAP2 DUP2 ADD PUSH1 0x20 ADD SWAP2 SWAP1 SWAP2 MSTORE SWAP4 SWAP3 POP POP POP JUMP JUMPDEST PUSH1 0x0 PUSH1 0x20 DUP3 DUP5 SUB SLT ISZERO PUSH2 0xE7A JUMPI PUSH1 0x0 DUP1 REVERT JUMPDEST DUP2 CALLDATALOAD PUSH8 0xFFFFFFFFFFFFFFFF DUP2 GT ISZERO PUSH2 0xE91 JUMPI PUSH1 0x0 DUP1 REVERT JUMPDEST PUSH2 0xE9D DUP5 DUP3 DUP6 ADD PUSH2 0xDF8 JUMP JUMPDEST SWAP5 SWAP4 POP POP POP POP JUMP JUMPDEST PUSH1 0x0 JUMPDEST DUP4 DUP2 LT ISZERO PUSH2 0xEC0 JUMPI DUP2 DUP2 ADD MLOAD DUP4 DUP3 ADD MSTORE PUSH1 0x20 ADD PUSH2 0xEA8 JUMP JUMPDEST DUP4 DUP2 GT ISZERO PUSH2 0xECF JUMPI PUSH1 0x0 DUP5 DUP5 ADD MSTORE JUMPDEST POP POP POP POP JUMP JUMPDEST PUSH1 0x0 DUP2 MLOAD DUP1 DUP5 MSTORE PUSH2 0xEED DUP2 PUSH1 0x20 DUP7 ADD PUSH1 0x20 DUP7 ADD PUSH2 0xEA5 JUMP JUMPDEST PUSH1 0x1F ADD PUSH1 0x1F NOT AND SWAP3 SWAP1 SWAP3 ADD PUSH1 0x20 ADD SWAP3 SWAP2 POP POP JUMP JUMPDEST PUSH1 0x0 PUSH1 0x20 DUP1 DUP4 MSTORE DUP4 MLOAD PUSH1 0x40 DUP3 DUP6 ADD MSTORE PUSH2 0xF1D PUSH1 0x60 DUP6 ADD DUP3 PUSH2 0xED5 JUMP JUMPDEST DUP6 DUP4 ADD MLOAD DUP6 DUP3 SUB PUSH1 0x1F NOT ADD PUSH1 0x40 DUP8 ADD MSTORE DUP1 MLOAD DUP1 DUP4 MSTORE SWAP1 DUP5 ADD SWAP3 POP PUSH1 0x0 SWAP2 DUP5 ADD SWAP1 JUMPDEST DUP1 DUP4 LT ISZERO PUSH2 0xF67 JUMPI DUP4 MLOAD PUSH1 0x1 PUSH1 0x1 PUSH1 0xA0 SHL SUB AND DUP3 MSTORE SWAP3 DUP5 ADD SWAP3 PUSH1 0x1 SWAP3 SWAP1 SWAP3 ADD SWAP2 SWAP1 DUP5 ADD SWAP1 PUSH2 0xF3E JUMP JUMPDEST POP SWAP7 SWAP6 POP POP POP POP POP POP JUMP JUMPDEST PUSH1 0x0 DUP1 PUSH1 0x0 DUP1 PUSH1 0x0 DUP1 PUSH1 0xC0 DUP8 DUP10 SUB SLT ISZERO PUSH2 0xF8B JUMPI PUSH1 0x0 DUP1 REVERT JUMPDEST DUP7 CALLDATALOAD SWAP6 POP PUSH1 0x20 DUP8 ADD CALLDATALOAD SWAP5 POP PUSH1 0x40 DUP8 ADD CALLDATALOAD SWAP4 POP PUSH1 0x60 DUP8 ADD CALLDATALOAD SWAP3 POP PUSH1 0x80 DUP8 ADD CALLDATALOAD SWAP2 POP PUSH2 0xFB7 PUSH1 0xA0 DUP9 ADD PUSH2 0xD73 JUMP JUMPDEST SWAP1 POP SWAP3 SWAP6 POP SWAP3 SWAP6 POP SWAP3 SWAP6 JUMP JUMPDEST PUSH1 0x0 DUP1 PUSH1 0x0 DUP1 PUSH1 0x80 DUP6 DUP8 SUB SLT ISZERO PUSH2 0xFD9 JUMPI PUSH1 0x0 DUP1 REVERT JUMPDEST DUP5 CALLDATALOAD PUSH8 0xFFFFFFFFFFFFFFFF DUP1 DUP3 GT ISZERO PUSH2 0xFF1 JUMPI PUSH1 0x0 DUP1 REVERT JUMPDEST PUSH2 0xFFD DUP9 DUP4 DUP10 ADD PUSH2 0xDF8 JUMP JUMPDEST SWAP6 POP PUSH2 0x100B PUSH1 0x20 DUP9 ADD PUSH2 0xD73 JUMP JUMPDEST SWAP5 POP PUSH1 0x40 DUP8 ADD CALLDATALOAD SWAP4 POP PUSH1 0x60 DUP8 ADD CALLDATALOAD SWAP2 POP DUP1 DUP3 GT ISZERO PUSH2 0x1028 JUMPI PUSH1 0x0 DUP1 REVERT JUMPDEST POP PUSH2 0x1035 DUP8 DUP3 DUP9 ADD PUSH2 0xDF8 JUMP JUMPDEST SWAP2 POP POP SWAP3 SWAP6 SWAP2 SWAP5 POP SWAP3 POP JUMP JUMPDEST PUSH1 0x0 PUSH1 0x20 DUP3 DUP5 SUB SLT ISZERO PUSH2 0x1053 JUMPI PUSH1 0x0 DUP1 REVERT JUMPDEST POP CALLDATALOAD SWAP2 SWAP1 POP JUMP JUMPDEST PUSH1 0x20 DUP2 ADD PUSH1 0x3 DUP4 LT PUSH2 0x107C JUMPI PUSH4 0x4E487B71 PUSH1 0xE0 SHL PUSH1 0x0 MSTORE PUSH1 0x21 PUSH1 0x4 MSTORE PUSH1 0x24 PUSH1 0x0 REVERT JUMPDEST SWAP2 SWAP1 MSTORE SWAP1 JUMP JUMPDEST PUSH1 0x0 DUP3 PUSH1 0x1F DUP4 ADD SLT PUSH2 0x1093 JUMPI PUSH1 0x0 DUP1 REVERT JUMPDEST DUP2 CALLDATALOAD PUSH1 0x20 PUSH8 0xFFFFFFFFFFFFFFFF DUP3 GT ISZERO PUSH2 0x10AF JUMPI PUSH2 0x10AF PUSH2 0xDB1 JUMP JUMPDEST DUP2 PUSH1 0x5 SHL PUSH2 0x10BE DUP3 DUP3 ADD PUSH2 0xDC7 JUMP JUMPDEST SWAP3 DUP4 MSTORE DUP5 DUP2 ADD DUP3 ADD SWAP3 DUP3 DUP2 ADD SWAP1 DUP8 DUP6 GT ISZERO PUSH2 0x10D8 JUMPI PUSH1 0x0 DUP1 REVERT JUMPDEST DUP4 DUP8 ADD SWAP3 POP JUMPDEST DUP5 DUP4 LT ISZERO PUSH2 0x10FE JUMPI PUSH2 0x10EF DUP4 PUSH2 0xD73 JUMP JUMPDEST DUP3 MSTORE SWAP2 DUP4 ADD SWAP2 SWAP1 DUP4 ADD SWAP1 PUSH2 0x10DE JUMP JUMPDEST SWAP8 SWAP7 POP POP POP POP POP POP POP JUMP JUMPDEST PUSH1 0x0 DUP1 PUSH1 0x0 PUSH1 0x60 DUP5 DUP7 SUB SLT ISZERO PUSH2 0x111E JUMPI PUSH1 0x0 DUP1 REVERT JUMPDEST DUP4 CALLDATALOAD DUP1 ISZERO ISZERO DUP2 EQ PUSH2 0x112E JUMPI PUSH1 0x0 DUP1 REVERT JUMPDEST SWAP3 POP PUSH1 0x20 DUP5 ADD CALLDATALOAD PUSH8 0xFFFFFFFFFFFFFFFF DUP1 DUP3 GT ISZERO PUSH2 0x114B JUMPI PUSH1 0x0 DUP1 REVERT JUMPDEST PUSH2 0x1157 DUP8 DUP4 DUP9 ADD PUSH2 0xDF8 JUMP JUMPDEST SWAP4 POP PUSH1 0x40 DUP7 ADD CALLDATALOAD SWAP2 POP DUP1 DUP3 GT ISZERO PUSH2 0x116D JUMPI PUSH1 0x0 DUP1 REVERT JUMPDEST POP PUSH2 0x117A DUP7 DUP3 DUP8 ADD PUSH2 0x1082 JUMP JUMPDEST SWAP2 POP POP SWAP3 POP SWAP3 POP SWAP3 JUMP JUMPDEST PUSH1 0x0 DUP1 PUSH1 0x40 DUP4 DUP6 SUB SLT ISZERO PUSH2 0x1197 JUMPI PUSH1 0x0 DUP1 REVERT JUMPDEST PUSH2 0x11A0 DUP4 PUSH2 0xD73 JUMP JUMPDEST SWAP5 PUSH1 0x20 SWAP4 SWAP1 SWAP4 ADD CALLDATALOAD SWAP4 POP POP POP JUMP JUMPDEST PUSH1 0x20 DUP2 MSTORE PUSH1 0x0 DUP3 MLOAD PUSH1 0x60 PUSH1 0x20 DUP5 ADD MSTORE PUSH2 0x11CA PUSH1 0x80 DUP5 ADD DUP3 PUSH2 0xED5 JUMP JUMPDEST SWAP1 POP PUSH1 0x20 DUP5 ADD MLOAD PUSH1 0x40 DUP5 ADD MSTORE PUSH1 0x40 DUP5 ADD MLOAD PUSH1 0x1F NOT DUP5 DUP4 SUB ADD PUSH1 0x60 DUP6 ADD MSTORE PUSH2 0x11F1 DUP3 DUP3 PUSH2 0xED5 JUMP JUMPDEST SWAP6 SWAP5 POP POP POP POP POP JUMP JUMPDEST PUSH1 0x0 DUP1 PUSH1 0x40 DUP4 DUP6 SUB SLT ISZERO PUSH2 0x120D JUMPI PUSH1 0x0 DUP1 REVERT JUMPDEST DUP3 CALLDATALOAD PUSH8 0xFFFFFFFFFFFFFFFF DUP1 DUP3 GT ISZERO PUSH2 0x1225 JUMPI PUSH1 0x0 DUP1 REVERT JUMPDEST PUSH2 0x1231 DUP7 DUP4 DUP8 ADD PUSH2 0xDF8 JUMP JUMPDEST SWAP4 POP PUSH1 0x20 DUP6 ADD CALLDATALOAD SWAP2 POP DUP1 DUP3 GT ISZERO PUSH2 0x1247 JUMPI PUSH1 0x0 DUP1 REVERT JUMPDEST POP PUSH2 0x1254 DUP6 DUP3 DUP7 ADD PUSH2 0x1082 JUMP JUMPDEST SWAP2 POP POP SWAP3 POP SWAP3 SWAP1 POP JUMP JUMPDEST PUSH1 0x0 DUP3 MLOAD PUSH2 0x1270 DUP2 DUP5 PUSH1 0x20 DUP8 ADD PUSH2 0xEA5 JUMP JUMPDEST SWAP2 SWAP1 SWAP2 ADD SWAP3 SWAP2 POP POP JUMP JUMPDEST PUSH1 0x1 DUP2 DUP2 SHR SWAP1 DUP3 AND DUP1 PUSH2 0x128E JUMPI PUSH1 0x7F DUP3 AND SWAP2 POP JUMPDEST PUSH1 0x20 DUP3 LT DUP2 EQ ISZERO PUSH2 0x12AF JUMPI PUSH4 0x4E487B71 PUSH1 0xE0 SHL PUSH1 0x0 MSTORE PUSH1 0x22 PUSH1 0x4 MSTORE PUSH1 0x24 PUSH1 0x0 REVERT JUMPDEST POP SWAP2 SWAP1 POP JUMP JUMPDEST PUSH1 0x20 DUP1 DUP3 MSTORE PUSH1 0x21 SWAP1 DUP3 ADD MSTORE PUSH32 0x5573657220646F6573206E6F7420657869737473206F6E207468652067726F75 PUSH1 0x40 DUP3 ADD MSTORE PUSH1 0x7 PUSH1 0xFC SHL PUSH1 0x60 DUP3 ADD MSTORE PUSH1 0x80 ADD SWAP1 JUMP JUMPDEST PUSH1 0x40 DUP2 MSTORE PUSH1 0x0 PUSH2 0x1309 PUSH1 0x40 DUP4 ADD DUP6 PUSH2 0xED5 JUMP JUMPDEST SWAP1 POP DUP3 ISZERO ISZERO PUSH1 0x20 DUP4 ADD MSTORE SWAP4 SWAP3 POP POP POP JUMP JUMPDEST PUSH1 0x20 DUP1 DUP3 MSTORE DUP2 DUP2 ADD MSTORE PUSH32 0x4F776E61626C653A2063616C6C6572206973206E6F7420746865206F776E6572 PUSH1 0x40 DUP3 ADD MSTORE PUSH1 0x60 ADD SWAP1 JUMP JUMPDEST PUSH1 0x20 DUP2 MSTORE PUSH1 0x0 PUSH2 0xDAA PUSH1 0x20 DUP4 ADD DUP5 PUSH2 0xED5 JUMP JUMPDEST PUSH4 0x4E487B71 PUSH1 0xE0 SHL PUSH1 0x0 MSTORE PUSH1 0x11 PUSH1 0x4 MSTORE PUSH1 0x24 PUSH1 0x0 REVERT JUMPDEST PUSH1 0x0 DUP3 DUP3 LT ISZERO PUSH2 0x138A JUMPI PUSH2 0x138A PUSH2 0x1362 JUMP JUMPDEST POP SUB SWAP1 JUMP JUMPDEST PUSH4 0x4E487B71 PUSH1 0xE0 SHL PUSH1 0x0 MSTORE PUSH1 0x32 PUSH1 0x4 MSTORE PUSH1 0x24 PUSH1 0x0 REVERT JUMPDEST PUSH1 0x0 PUSH1 0x0 NOT DUP3 EQ ISZERO PUSH2 0x13B9 JUMPI PUSH2 0x13B9 PUSH2 0x1362 JUMP JUMPDEST POP PUSH1 0x1 ADD SWAP1 JUMP INVALID LOG2 PUSH5 0x6970667358 0x22 SLT KECCAK256 0x49 MSIZE ADD 0xD4 0xD1 0xB8 DUP5 0xCB SWAP1 CALLCODE 0x4C 0xC5 CODECOPY SWAP12 DUP11 0xC1 DUP4 0xA8 0xD0 0x4A 0xB4 KECCAK256 DUP12 NOT PUSH31 0x56F84DCECD1B8E64736F6C634300080B003300000000000000000000000000 ",
  "sha1": "46dd63f4f781cba03150da2adf8f08b49cf2a418",
  "source": "//SPDX-License-Identifier: MIT\n\npragma solidity ^0.8.0;\n\nimport \"@openzeppelin/contracts/access/Ownable.sol\";\n\n// User Struct for interaction with the Platform\ncontract Wingbird is Ownable {\n    // PHASE0 TUTORIAL, USER CREATION, AND FIRST SEEDS\n\n    struct Bird {\n        string nickName;\n        uint256 color;\n        string imgURL;\n    }\n\n    enum EggColors {\n        RED,\n        GREE,\n        PURPLE\n    }\n\n    struct BirdHonors {\n        uint256 OwlPoints;\n        uint256 EaglePoints;\n        uint256 PeacockPoints;\n        uint256 HummingbirdPoints;\n        uint256 PenguinPoints;\n    }\n\n    enum BirdRoles {\n        EAGLE,\n        OWL,\n        PEACOCK,\n        PENGUIN,\n        HUMMINGBIRD\n    }\n\n    struct IpfsInfo {\n        string ipfs_cid;\n        address[] _birds;\n    }\n\n    BirdRoles birds;\n\n    address[] totalBirdsOnPlatform;\n\n    // Mappings for different dataTypes\n    mapping(address => Bird) birdsOnThePlatform;\n    mapping(uint256 => EggColors) public colorIdToEgg;\n    mapping(address => uint256) public birdSeeds;\n    mapping(address => BirdHonors) birdHonor;\n    mapping(string => IpfsInfo) ipfsCids;\n\n    //events\n    event userCreated(address _userAddress);\n    event userFunded(address _userAddress, uint256 _amount);\n    event honorSent(uint256 _amount);\n    // phase1\n    // NOTE: Which other parameters the emet should emit?\n    event missionOneCompleted(string _ipfs_cid);\n    event missionTwoConsensusCompleted(string _ipfs_cid, bool _consensus);\n\n    //events for storage phase1\n\n    // Creates user passing the chosen nickname, the address, the color of the egg.\n    // The IMG should be URL stored on IPFS\n\n    function createNewUser(\n        string memory _nickname,\n        address _userAddress,\n        uint256 _color,\n        string memory _imgURL\n    ) public {\n        // Replace this when using a current ERC20 TOKEN\n        Bird memory user = Bird(_nickname, _color, _imgURL);\n        birdsOnThePlatform[_userAddress] = user;\n        BirdHonors memory birdHonors = BirdHonors(0, 0, 0, 0, 0);\n        birdHonor[_userAddress] = birdHonors;\n        totalBirdsOnPlatform.push(_userAddress);\n        emit userCreated(_userAddress);\n    }\n\n    // Give Seeds to user\n    // NOTE: should change this to an actual ERC20\n    function giveInitialSeeds(address _bird, uint256 _amount) public onlyOwner {\n        require(_amount >= 10, \"The Minimum amount should be 10\");\n        birdSeeds[_bird] = _amount;\n        emit userFunded(_bird, _amount);\n    }\n\n    //TODO: assing the egg color to the index.\n    function mapColors() internal {}\n\n    function getUser(address _bird) public view returns (Bird memory) {\n        return birdsOnThePlatform[_bird];\n    }\n\n    function getUserBalance(address _bird) public view returns (uint256) {\n        return birdSeeds[_bird];\n    }\n\n    function getEggColor(uint256 _color) public view returns (EggColors) {\n        return colorIdToEgg[_color];\n    }\n\n    function getTotalBirds() public view returns (uint256) {\n        return totalBirdsOnPlatform.length;\n    }\n\n    // PHASE 1 PVP AND HONOR SYSTEM, and Honor Getting\n\n    function syncSenses(\n        string memory _ipfs_cid_mission1,\n        address[] memory _birds\n    ) public {\n        require(\n            checkAddress(msg.sender, _birds) == true,\n            \"User does not exists on the group\"\n        );\n        IpfsInfo memory newCid = IpfsInfo(_ipfs_cid_mission1, _birds);\n        ipfsCids[_ipfs_cid_mission1] = newCid;\n        emit missionOneCompleted(_ipfs_cid_mission1);\n    }\n\n    function reachConsensus(\n        bool _consensusReached,\n        string memory _ipfs_cid_mission2,\n        address[] memory _birds\n    ) public {\n        require(\n            checkAddress(msg.sender, _birds) == true,\n            \"User does not exists on the group\"\n        );\n        require(_consensusReached == true, \"Consensus not reached\");\n        IpfsInfo memory newCid = IpfsInfo(_ipfs_cid_mission2, _birds);\n        ipfsCids[_ipfs_cid_mission2] = newCid;\n        emit missionTwoConsensusCompleted(\n            _ipfs_cid_mission2,\n            _consensusReached\n        );\n    }\n\n    function getIpfsObject(string memory _cid)\n        public\n        view\n        returns (IpfsInfo memory)\n    {\n        return ipfsCids[_cid];\n    }\n\n    // check if the address on a given array\n    function checkAddress(address _userAddres, address[] memory _users)\n        internal\n        pure\n        returns (bool)\n    {\n        bool exist = false;\n        for (uint256 i = 0; i < _users.length; i++) {\n            if (_users[i] == _userAddres) {\n                exist = true;\n            }\n        }\n        return exist;\n    }\n\n    // Spend token for honor system.\n    // NOTE: should also replace with actual ERC20 token.\n    function giveHonors(uint256 _amount) public {\n        require(_amount == 1);\n        birdSeeds[msg.sender] = birdSeeds[msg.sender] - 1;\n        emit honorSent(_amount);\n    }\n\n    // set the final puntuation for the bird, based on the honorSent\n\n    function setFinalHonors(\n        uint256 _owl,\n        uint256 _eagle,\n        uint256 _peacock,\n        uint256 _penguin,\n        uint256 _hummingbird,\n        address _bird\n    ) public {\n        birdHonor[_bird].EaglePoints = _eagle;\n        birdHonor[_bird].OwlPoints = _owl;\n        birdHonor[_bird].PenguinPoints = _penguin;\n        birdHonor[_bird].HummingbirdPoints = _hummingbird;\n        birdHonor[_bird].PeacockPoints = _peacock;\n    }\n\n    function getFinalHonors(address _bird)\n        public\n        view\n        returns (BirdHonors memory)\n    {\n        return birdHonor[_bird];\n    }\n\n    // Interaction storage functions for IPFS\n    function syncSensens() public {}\n}\n",
  "sourcePath": "contracts/Wingbird.sol",
  "type": "contract"
}