{
  "abi": [
    {
      "inputs": [
        {
          "internalType": "address",
          "name": "_vrfCoordinator",
          "type": "address"
        },
        {
          "internalType": "address",
          "name": "_link",
          "type": "address"
        },
        {
          "internalType": "uint256",
          "name": "_fee",
          "type": "uint256"
        },
        {
          "internalType": "bytes32",
          "name": "_keyhash",
          "type": "bytes32"
        }
      ],
      "stateMutability": "nonpayable",
      "type": "constructor"
    },
    {
      "anonymous": false,
      "inputs": [
        {
          "indexed": true,
          "internalType": "address",
          "name": "previousOwner",
          "type": "address"
        },
        {
          "indexed": true,
          "internalType": "address",
          "name": "newOwner",
          "type": "address"
        }
      ],
      "name": "OwnershipTransferred",
      "type": "event"
    },
    {
      "anonymous": false,
      "inputs": [
        {
          "indexed": false,
          "internalType": "bytes32",
          "name": "requestId",
          "type": "bytes32"
        }
      ],
      "name": "RequestedRandomness",
      "type": "event"
    },
    {
      "anonymous": false,
      "inputs": [
        {
          "indexed": false,
          "internalType": "uint256",
          "name": "_amount",
          "type": "uint256"
        }
      ],
      "name": "honorSent",
      "type": "event"
    },
    {
      "anonymous": false,
      "inputs": [
        {
          "indexed": false,
          "internalType": "string",
          "name": "_ipfs_cid",
          "type": "string"
        }
      ],
      "name": "missionOneCompleted",
      "type": "event"
    },
    {
      "anonymous": false,
      "inputs": [
        {
          "indexed": false,
          "internalType": "string",
          "name": "_ipfs_cid",
          "type": "string"
        },
        {
          "indexed": false,
          "internalType": "bool",
          "name": "_consensus",
          "type": "bool"
        }
      ],
      "name": "missionTwoConsensusCompleted",
      "type": "event"
    },
    {
      "anonymous": false,
      "inputs": [
        {
          "indexed": false,
          "internalType": "address",
          "name": "_userAddress",
          "type": "address"
        }
      ],
      "name": "userCreated",
      "type": "event"
    },
    {
      "anonymous": false,
      "inputs": [
        {
          "indexed": false,
          "internalType": "address",
          "name": "_userAddress",
          "type": "address"
        },
        {
          "indexed": false,
          "internalType": "uint256",
          "name": "_amount",
          "type": "uint256"
        }
      ],
      "name": "userFunded",
      "type": "event"
    },
    {
      "inputs": [
        {
          "internalType": "address",
          "name": "",
          "type": "address"
        }
      ],
      "name": "birdSeeds",
      "outputs": [
        {
          "internalType": "uint256",
          "name": "",
          "type": "uint256"
        }
      ],
      "stateMutability": "view",
      "type": "function"
    },
    {
      "inputs": [
        {
          "internalType": "string",
          "name": "_ipfs_cid_mission",
          "type": "string"
        }
      ],
      "name": "buildFences",
      "outputs": [],
      "stateMutability": "nonpayable",
      "type": "function"
    },
    {
      "inputs": [
        {
          "internalType": "uint256",
          "name": "",
          "type": "uint256"
        }
      ],
      "name": "colorIdToEgg",
      "outputs": [
        {
          "internalType": "enum Wingbird.EggColors",
          "name": "",
          "type": "uint8"
        }
      ],
      "stateMutability": "view",
      "type": "function"
    },
    {
      "inputs": [
        {
          "internalType": "string",
          "name": "_nickname",
          "type": "string"
        },
        {
          "internalType": "string",
          "name": "_imgURL",
          "type": "string"
        }
      ],
      "name": "createNewUser",
      "outputs": [],
      "stateMutability": "nonpayable",
      "type": "function"
    },
    {
      "inputs": [
        {
          "internalType": "address",
          "name": "_bird",
          "type": "address"
        }
      ],
      "name": "getFinalHonors",
      "outputs": [
        {
          "components": [
            {
              "internalType": "uint256",
              "name": "OwlPoints",
              "type": "uint256"
            },
            {
              "internalType": "uint256",
              "name": "EaglePoints",
              "type": "uint256"
            },
            {
              "internalType": "uint256",
              "name": "PeacockPoints",
              "type": "uint256"
            },
            {
              "internalType": "uint256",
              "name": "HummingbirdPoints",
              "type": "uint256"
            },
            {
              "internalType": "uint256",
              "name": "PenguinPoints",
              "type": "uint256"
            }
          ],
          "internalType": "struct Wingbird.BirdHonors",
          "name": "",
          "type": "tuple"
        }
      ],
      "stateMutability": "view",
      "type": "function"
    },
    {
      "inputs": [
        {
          "internalType": "string",
          "name": "_cid",
          "type": "string"
        }
      ],
      "name": "getIpfsObject",
      "outputs": [
        {
          "components": [
            {
              "internalType": "string",
              "name": "ipfs_cid",
              "type": "string"
            },
            {
              "internalType": "address[]",
              "name": "_birds",
              "type": "address[]"
            }
          ],
          "internalType": "struct Wingbird.IpfsInfo",
          "name": "",
          "type": "tuple"
        }
      ],
      "stateMutability": "view",
      "type": "function"
    },
    {
      "inputs": [],
      "name": "getRandomNumber",
      "outputs": [],
      "stateMutability": "nonpayable",
      "type": "function"
    },
    {
      "inputs": [],
      "name": "getTotalBirds",
      "outputs": [
        {
          "internalType": "uint256",
          "name": "",
          "type": "uint256"
        }
      ],
      "stateMutability": "view",
      "type": "function"
    },
    {
      "inputs": [
        {
          "internalType": "address",
          "name": "_bird",
          "type": "address"
        }
      ],
      "name": "getUser",
      "outputs": [
        {
          "components": [
            {
              "internalType": "string",
              "name": "nickName",
              "type": "string"
            },
            {
              "internalType": "string",
              "name": "imgURL",
              "type": "string"
            },
            {
              "internalType": "uint256",
              "name": "randomNumber",
              "type": "uint256"
            }
          ],
          "internalType": "struct Wingbird.User",
          "name": "",
          "type": "tuple"
        }
      ],
      "stateMutability": "view",
      "type": "function"
    },
    {
      "inputs": [
        {
          "internalType": "address",
          "name": "_bird",
          "type": "address"
        }
      ],
      "name": "getUserBalance",
      "outputs": [
        {
          "internalType": "uint256",
          "name": "",
          "type": "uint256"
        }
      ],
      "stateMutability": "view",
      "type": "function"
    },
    {
      "inputs": [
        {
          "internalType": "uint256",
          "name": "_amount",
          "type": "uint256"
        }
      ],
      "name": "giveHonors",
      "outputs": [],
      "stateMutability": "nonpayable",
      "type": "function"
    },
    {
      "inputs": [],
      "name": "owner",
      "outputs": [
        {
          "internalType": "address",
          "name": "",
          "type": "address"
        }
      ],
      "stateMutability": "view",
      "type": "function"
    },
    {
      "inputs": [],
      "name": "randomResult",
      "outputs": [
        {
          "internalType": "uint256",
          "name": "",
          "type": "uint256"
        }
      ],
      "stateMutability": "view",
      "type": "function"
    },
    {
      "inputs": [
        {
          "internalType": "bytes32",
          "name": "requestId",
          "type": "bytes32"
        },
        {
          "internalType": "uint256",
          "name": "randomness",
          "type": "uint256"
        }
      ],
      "name": "rawFulfillRandomness",
      "outputs": [],
      "stateMutability": "nonpayable",
      "type": "function"
    },
    {
      "inputs": [
        {
          "internalType": "bool",
          "name": "_consensusReached",
          "type": "bool"
        },
        {
          "internalType": "string",
          "name": "_ipfs_cid_mission2",
          "type": "string"
        },
        {
          "internalType": "address[]",
          "name": "_birds",
          "type": "address[]"
        }
      ],
      "name": "reachConsensus",
      "outputs": [],
      "stateMutability": "nonpayable",
      "type": "function"
    },
    {
      "inputs": [],
      "name": "renounceOwnership",
      "outputs": [],
      "stateMutability": "nonpayable",
      "type": "function"
    },
    {
      "inputs": [
        {
          "internalType": "uint256",
          "name": "_owl",
          "type": "uint256"
        },
        {
          "internalType": "uint256",
          "name": "_eagle",
          "type": "uint256"
        },
        {
          "internalType": "uint256",
          "name": "_peacock",
          "type": "uint256"
        },
        {
          "internalType": "uint256",
          "name": "_penguin",
          "type": "uint256"
        },
        {
          "internalType": "uint256",
          "name": "_hummingbird",
          "type": "uint256"
        },
        {
          "internalType": "address",
          "name": "_bird",
          "type": "address"
        }
      ],
      "name": "setFinalHonors",
      "outputs": [],
      "stateMutability": "nonpayable",
      "type": "function"
    },
    {
      "inputs": [
        {
          "internalType": "string",
          "name": "_ipfs_cid_mission1",
          "type": "string"
        },
        {
          "internalType": "address[]",
          "name": "_birds",
          "type": "address[]"
        }
      ],
      "name": "syncSenses",
      "outputs": [],
      "stateMutability": "nonpayable",
      "type": "function"
    },
    {
      "inputs": [
        {
          "internalType": "address",
          "name": "newOwner",
          "type": "address"
        }
      ],
      "name": "transferOwnership",
      "outputs": [],
      "stateMutability": "nonpayable",
      "type": "function"
    }
  ],
  "bytecode": "60c06040523480156200001157600080fd5b5060405162001979380380620019798339810160408190526200003491620000cf565b8383620000413362000062565b6001600160a01b0391821660a0521660805260025560035550620001179050565b600080546001600160a01b038381166001600160a01b0319831681178455604051919092169283917f8be0079c531659141344cd1fd0a4f28419497f9722a3daafe3b4186f6b6457e09190a35050565b80516001600160a01b0381168114620000ca57600080fd5b919050565b60008060008060808587031215620000e657600080fd5b620000f185620000b2565b93506200010160208601620000b2565b6040860151606090960151949790965092505050565b60805160a05161182e6200014b600039600081816109b90152610f4b015260008181610b1f0152610f1c015261182e6000f3fe608060405234801561001057600080fd5b50600436106101215760003560e01c8063715018a6116100ad578063d97b404811610071578063d97b4048146102d1578063dbdff2c114610301578063f08abe9b14610309578063f2fde38b1461031c578063fd00cc591461032f57600080fd5b8063715018a6146102775780638da5cb5b1461027f57806394985ddd1461029a578063963b7349146102ad578063bc1586d1146102c057600080fd5b806347734892116100f457806347734892146102005780634dfa3f18146102295780635fd5d70b1461023c57806364f63b1e1461024f5780636f77926b1461025757600080fd5b80631b79da8c146101265780632eb0e1e6146101845780633e521cc0146101a457806342619f66146101e9575b600080fd5b6101396101343660046111a5565b61034f565b60405161017b9190600060a082019050825182526020830151602083015260408301516040830152606083015160608301526080830151608083015292915050565b60405180910390f35b61019761019236600461127e565b6103d9565b60405161017b919061130f565b6101e76101b2366004611380565b6001600160a01b03166000908152600a6020526040902060018101949094559383556004830155600382019290925560020155565b005b6101f260045481565b60405190815260200161017b565b6101f261020e3660046111a5565b6001600160a01b031660009081526009602052604090205490565b6101e76102373660046113d1565b610511565b6101e761024a3660046114ca565b6106bb565b6006546101f2565b61026a6102653660046111a5565b6107cd565b60405161017b9190611540565b6101e7610948565b6000546040516001600160a01b03909116815260200161017b565b6101e76102a8366004611590565b6109ae565b6101e76102bb3660046115b2565b610a34565b6101e76102ce36600461127e565b50565b6102f46102df36600461160c565b60086020526000908152604090205460ff1681565b60405161017b9190611625565b6101e7610b07565b6101e761031736600461160c565b610c42565b6101e761032a3660046111a5565b610cae565b6101f261033d3660046111a5565b60096020526000908152604090205481565b6103816040518060a0016040528060008152602001600081526020016000815260200160008152602001600081525090565b506001600160a01b03166000908152600a6020908152604091829020825160a0810184528154815260018201549281019290925260028101549282019290925260038201546060820152600490910154608082015290565b6040805180820190915260608082526020820152600b826040516103fd919061164d565b908152602001604051809103902060405180604001604052908160008201805461042690611669565b80601f016020809104026020016040519081016040528092919081815260200182805461045290611669565b801561049f5780601f106104745761010080835404028352916020019161049f565b820191906000526020600020905b81548152906001019060200180831161048257829003601f168201915b505050505081526020016001820180548060200260200160405190810160405280929190818152602001828054801561050157602002820191906000526020600020905b81546001600160a01b031681526001909101906020018083116104e3575b5050505050815250509050919050565b336000908152600960205260409020541561056a5760405162461bcd60e51b81526020600482015260146024820152735573657220616c7265616479206578697374732160601b60448201526064015b60405180910390fd5b610572610b07565b60408051606081018252838152602080820184905260045482840152336000908152600782529290922081518051929384936105b1928492019061109b565b5060208281015180516105ca926001850192019061109b565b50604091820151600291820155815160a08101835260008082526020808301828152838601838152606085018481526080860185815233808752600a90955297852086518155925160018085019190915591519683019690965594516003820155945160049095019490945560068054938401815590527ff652222313e28459528d920b65115c16c04f3efc82aaedc97be59f3f377c0d3f90910180546001600160a01b0319168317905590610681906064610d76565b6040513381527fa22187ec83aa1b90e4efbaa4f24ce6b70a007f97923b5878c0fb8026c2febe79906020015b60405180910390a150505050565b6106c53382610e1f565b15156001146106e65760405162461bcd60e51b8152600401610561906116a4565b6001831515146107305760405162461bcd60e51b815260206004820152601560248201527410dbdb9cd95b9cdd5cc81b9bdd081c995858da1959605a1b6044820152606401610561565b6040805180820182528381526020810183905290518190600b9061075590869061164d565b9081526020016040518091039020600082015181600001908051906020019061077f92919061109b565b506020828101518051610798926001850192019061111f565b509050507f9c5c2780a8755dfa42a837fa1d2f3272cb07b4eff3717c9f0bbc1618f9f3061783856040516106ad9291906116e5565b6107f160405180606001604052806060815260200160608152602001600081525090565b6001600160a01b0382166000908152600760205260409081902081516060810190925280548290829061082390611669565b80601f016020809104026020016040519081016040528092919081815260200182805461084f90611669565b801561089c5780601f106108715761010080835404028352916020019161089c565b820191906000526020600020905b81548152906001019060200180831161087f57829003601f168201915b505050505081526020016001820180546108b590611669565b80601f01602080910402602001604051908101604052809291908181526020018280546108e190611669565b801561092e5780601f106109035761010080835404028352916020019161092e565b820191906000526020600020905b81548152906001019060200180831161091157829003601f168201915b505050505081526020016002820154815250509050919050565b6000546001600160a01b031633146109a25760405162461bcd60e51b815260206004820181905260248201527f4f776e61626c653a2063616c6c6572206973206e6f7420746865206f776e65726044820152606401610561565b6109ac6000610e7f565b565b336001600160a01b037f00000000000000000000000000000000000000000000000000000000000000001614610a265760405162461bcd60e51b815260206004820152601f60248201527f4f6e6c7920565246436f6f7264696e61746f722063616e2066756c66696c6c006044820152606401610561565b610a308282610ecf565b5050565b610a3e3382610e1f565b1515600114610a5f5760405162461bcd60e51b8152600401610561906116a4565b6040805180820182528381526020810183905290518190600b90610a8490869061164d565b90815260200160405180910390206000820151816000019080519060200190610aae92919061109b565b506020828101518051610ac7926001850192019061111f565b509050507f54b13326dce0f4cdd781a4f93a66e725cbdb6247cd4e6c00064c18b39d07bb3583604051610afa9190611709565b60405180910390a1505050565b6003546040516370a0823160e01b81523060048201527f00000000000000000000000000000000000000000000000000000000000000006001600160a01b0316906370a0823190602401602060405180830381865afa158015610b6e573d6000803e3d6000fd5b505050506040513d601f19601f82011682018060405250810190610b92919061171c565b1015610bf45760405162461bcd60e51b815260206004820152602b60248201527f4e6f7420656e6f756768204c494e4b202d2066696c6c20636f6e74726163742060448201526a1dda5d1a0819985d58d95d60aa1b6064820152608401610561565b6000610c04600254600354610f18565b90507fe5f5b44d72d4143c278eb745c4acc0695c4a5bc616be5beecf46abe29661780e81604051610c3791815260200190565b60405180910390a150565b80600a14610c4f57600080fd5b33600090815260096020526040902054610c6b90600a9061174b565b3360009081526009602090815260409182902092909255518281527f89e69b6fa2d69c7eb45b6af3918dbaa99e08cc13755f03ead1be356d699558d29101610c37565b6000546001600160a01b03163314610d085760405162461bcd60e51b815260206004820181905260248201527f4f776e61626c653a2063616c6c6572206973206e6f7420746865206f776e65726044820152606401610561565b6001600160a01b038116610d6d5760405162461bcd60e51b815260206004820152602660248201527f4f776e61626c653a206e6577206f776e657220697320746865207a65726f206160448201526564647265737360d01b6064820152608401610561565b6102ce81610e7f565b6064811015610dc75760405162461bcd60e51b815260206004820181905260248201527f546865204d696e696d756d20616d6f756e742073686f756c64206265203130306044820152606401610561565b6001600160a01b038216600081815260096020908152604091829020849055815192835282018390527f02d570fba1492852e40bfa341311a0467b1ebf0d0755e4e405f2f3bac9c8a23e910160405180910390a15050565b600080805b8351811015610e7757846001600160a01b0316848281518110610e4957610e49611762565b60200260200101516001600160a01b03161415610e6557600191505b80610e6f81611778565b915050610e24565b509392505050565b600080546001600160a01b038381166001600160a01b0319831681178455604051919092169283917f8be0079c531659141344cd1fd0a4f28419497f9722a3daafe3b4186f6b6457e09190a35050565b60008111610f125760405162461bcd60e51b815260206004820152601060248201526f1c985b991bdb481b9bdd08199bdd5b9960821b6044820152606401610561565b60045550565b60007f00000000000000000000000000000000000000000000000000000000000000006001600160a01b0316634000aea07f000000000000000000000000000000000000000000000000000000000000000084866000604051602001610f88929190918252602082015260400190565b6040516020818303038152906040526040518463ffffffff1660e01b8152600401610fb593929190611793565b6020604051808303816000875af1158015610fd4573d6000803e3d6000fd5b505050506040513d601f19601f82011682018060405250810190610ff891906117c3565b50600083815260016020818152604080842054815180840189905280830186905230606082015260808082018390528351808303909101815260a09091019092528151918301919091209387905290829052611053916117e0565b6000858152600160205260409020556110938482604080516020808201949094528082019290925280518083038201815260609092019052805191012090565b949350505050565b8280546110a790611669565b90600052602060002090601f0160209004810192826110c9576000855561110f565b82601f106110e257805160ff191683800117855561110f565b8280016001018555821561110f579182015b8281111561110f5782518255916020019190600101906110f4565b5061111b929150611174565b5090565b82805482825590600052602060002090810192821561110f579160200282015b8281111561110f57825182546001600160a01b0319166001600160a01b0390911617825560209092019160019091019061113f565b5b8082111561111b5760008155600101611175565b80356001600160a01b03811681146111a057600080fd5b919050565b6000602082840312156111b757600080fd5b6111c082611189565b9392505050565b634e487b7160e01b600052604160045260246000fd5b604051601f8201601f1916810167ffffffffffffffff81118282101715611206576112066111c7565b604052919050565b600082601f83011261121f57600080fd5b813567ffffffffffffffff811115611239576112396111c7565b61124c601f8201601f19166020016111dd565b81815284602083860101111561126157600080fd5b816020850160208301376000918101602001919091529392505050565b60006020828403121561129057600080fd5b813567ffffffffffffffff8111156112a757600080fd5b6110938482850161120e565b60005b838110156112ce5781810151838201526020016112b6565b838111156112dd576000848401525b50505050565b600081518084526112fb8160208601602086016112b3565b601f01601f19169290920160200192915050565b60006020808352835160408285015261132b60608501826112e3565b85830151858203601f19016040870152805180835290840192506000918401905b808310156113755783516001600160a01b0316825292840192600192909201919084019061134c565b509695505050505050565b60008060008060008060c0878903121561139957600080fd5b86359550602087013594506040870135935060608701359250608087013591506113c560a08801611189565b90509295509295509295565b600080604083850312156113e457600080fd5b823567ffffffffffffffff808211156113fc57600080fd5b6114088683870161120e565b9350602085013591508082111561141e57600080fd5b5061142b8582860161120e565b9150509250929050565b80151581146102ce57600080fd5b600082601f83011261145457600080fd5b8135602067ffffffffffffffff821115611470576114706111c7565b8160051b61147f8282016111dd565b928352848101820192828101908785111561149957600080fd5b83870192505b848310156114bf576114b083611189565b8252918301919083019061149f565b979650505050505050565b6000806000606084860312156114df57600080fd5b83356114ea81611435565b9250602084013567ffffffffffffffff8082111561150757600080fd5b6115138783880161120e565b9350604086013591508082111561152957600080fd5b5061153686828701611443565b9150509250925092565b60208152600082516060602084015261155c60808401826112e3565b90506020840151601f1984830301604085015261157982826112e3565b915050604084015160608401528091505092915050565b600080604083850312156115a357600080fd5b50508035926020909101359150565b600080604083850312156115c557600080fd5b823567ffffffffffffffff808211156115dd57600080fd5b6115e98683870161120e565b935060208501359150808211156115ff57600080fd5b5061142b85828601611443565b60006020828403121561161e57600080fd5b5035919050565b602081016003831061164757634e487b7160e01b600052602160045260246000fd5b91905290565b6000825161165f8184602087016112b3565b9190910192915050565b600181811c9082168061167d57607f821691505b6020821081141561169e57634e487b7160e01b600052602260045260246000fd5b50919050565b60208082526021908201527f5573657220646f6573206e6f7420657869737473206f6e207468652067726f756040820152600760fc1b606082015260800190565b6040815260006116f860408301856112e3565b905082151560208301529392505050565b6020815260006111c060208301846112e3565b60006020828403121561172e57600080fd5b5051919050565b634e487b7160e01b600052601160045260246000fd5b60008282101561175d5761175d611735565b500390565b634e487b7160e01b600052603260045260246000fd5b600060001982141561178c5761178c611735565b5060010190565b60018060a01b03841681528260208201526060604082015260006117ba60608301846112e3565b95945050505050565b6000602082840312156117d557600080fd5b81516111c081611435565b600082198211156117f3576117f3611735565b50019056fea264697066735822122039235f749807fb4d2859ccb044579b5bc5f2601e754f8d9228bf5a033e1b3a1e64736f6c634300080b0033",
  "bytecodeSha1": "2b346b267fcc83458cc331c2df9779f2cdfbd2d6",
  "compiler": {
    "evm_version": "istanbul",
    "optimizer": {
      "enabled": true,
      "runs": 200
    },
    "version": "0.8.11+commit.d7f03943"
  },
  "contractName": "Wingbird",
  "language": "Solidity",
  "natspec": {
    "kind": "dev",
    "methods": {
      "owner()": {
        "details": "Returns the address of the current owner."
      },
      "renounceOwnership()": {
        "details": "Leaves the contract without owner. It will not be possible to call `onlyOwner` functions anymore. Can only be called by the current owner. NOTE: Renouncing ownership will leave the contract without an owner, thereby removing any functionality that is only available to the owner."
      },
      "transferOwnership(address)": {
        "details": "Transfers ownership of the contract to a new account (`newOwner`). Can only be called by the current owner."
      }
    },
    "version": 1
  },
  "opcodes": "PUSH1 0x80 PUSH1 0x40 MSTORE CALLVALUE DUP1 ISZERO PUSH2 0x10 JUMPI PUSH1 0x0 DUP1 REVERT JUMPDEST POP PUSH1 0x4 CALLDATASIZE LT PUSH2 0x121 JUMPI PUSH1 0x0 CALLDATALOAD PUSH1 0xE0 SHR DUP1 PUSH4 0x715018A6 GT PUSH2 0xAD JUMPI DUP1 PUSH4 0xD97B4048 GT PUSH2 0x71 JUMPI DUP1 PUSH4 0xD97B4048 EQ PUSH2 0x2D1 JUMPI DUP1 PUSH4 0xDBDFF2C1 EQ PUSH2 0x301 JUMPI DUP1 PUSH4 0xF08ABE9B EQ PUSH2 0x309 JUMPI DUP1 PUSH4 0xF2FDE38B EQ PUSH2 0x31C JUMPI DUP1 PUSH4 0xFD00CC59 EQ PUSH2 0x32F JUMPI PUSH1 0x0 DUP1 REVERT JUMPDEST DUP1 PUSH4 0x715018A6 EQ PUSH2 0x277 JUMPI DUP1 PUSH4 0x8DA5CB5B EQ PUSH2 0x27F JUMPI DUP1 PUSH4 0x94985DDD EQ PUSH2 0x29A JUMPI DUP1 PUSH4 0x963B7349 EQ PUSH2 0x2AD JUMPI DUP1 PUSH4 0xBC1586D1 EQ PUSH2 0x2C0 JUMPI PUSH1 0x0 DUP1 REVERT JUMPDEST DUP1 PUSH4 0x47734892 GT PUSH2 0xF4 JUMPI DUP1 PUSH4 0x47734892 EQ PUSH2 0x200 JUMPI DUP1 PUSH4 0x4DFA3F18 EQ PUSH2 0x229 JUMPI DUP1 PUSH4 0x5FD5D70B EQ PUSH2 0x23C JUMPI DUP1 PUSH4 0x64F63B1E EQ PUSH2 0x24F JUMPI DUP1 PUSH4 0x6F77926B EQ PUSH2 0x257 JUMPI PUSH1 0x0 DUP1 REVERT JUMPDEST DUP1 PUSH4 0x1B79DA8C EQ PUSH2 0x126 JUMPI DUP1 PUSH4 0x2EB0E1E6 EQ PUSH2 0x184 JUMPI DUP1 PUSH4 0x3E521CC0 EQ PUSH2 0x1A4 JUMPI DUP1 PUSH4 0x42619F66 EQ PUSH2 0x1E9 JUMPI JUMPDEST PUSH1 0x0 DUP1 REVERT JUMPDEST PUSH2 0x139 PUSH2 0x134 CALLDATASIZE PUSH1 0x4 PUSH2 0x11A5 JUMP JUMPDEST PUSH2 0x34F JUMP JUMPDEST PUSH1 0x40 MLOAD PUSH2 0x17B SWAP2 SWAP1 PUSH1 0x0 PUSH1 0xA0 DUP3 ADD SWAP1 POP DUP3 MLOAD DUP3 MSTORE PUSH1 0x20 DUP4 ADD MLOAD PUSH1 0x20 DUP4 ADD MSTORE PUSH1 0x40 DUP4 ADD MLOAD PUSH1 0x40 DUP4 ADD MSTORE PUSH1 0x60 DUP4 ADD MLOAD PUSH1 0x60 DUP4 ADD MSTORE PUSH1 0x80 DUP4 ADD MLOAD PUSH1 0x80 DUP4 ADD MSTORE SWAP3 SWAP2 POP POP JUMP JUMPDEST PUSH1 0x40 MLOAD DUP1 SWAP2 SUB SWAP1 RETURN JUMPDEST PUSH2 0x197 PUSH2 0x192 CALLDATASIZE PUSH1 0x4 PUSH2 0x127E JUMP JUMPDEST PUSH2 0x3D9 JUMP JUMPDEST PUSH1 0x40 MLOAD PUSH2 0x17B SWAP2 SWAP1 PUSH2 0x130F JUMP JUMPDEST PUSH2 0x1E7 PUSH2 0x1B2 CALLDATASIZE PUSH1 0x4 PUSH2 0x1380 JUMP JUMPDEST PUSH1 0x1 PUSH1 0x1 PUSH1 0xA0 SHL SUB AND PUSH1 0x0 SWAP1 DUP2 MSTORE PUSH1 0xA PUSH1 0x20 MSTORE PUSH1 0x40 SWAP1 KECCAK256 PUSH1 0x1 DUP2 ADD SWAP5 SWAP1 SWAP5 SSTORE SWAP4 DUP4 SSTORE PUSH1 0x4 DUP4 ADD SSTORE PUSH1 0x3 DUP3 ADD SWAP3 SWAP1 SWAP3 SSTORE PUSH1 0x2 ADD SSTORE JUMP JUMPDEST STOP JUMPDEST PUSH2 0x1F2 PUSH1 0x4 SLOAD DUP2 JUMP JUMPDEST PUSH1 0x40 MLOAD SWAP1 DUP2 MSTORE PUSH1 0x20 ADD PUSH2 0x17B JUMP JUMPDEST PUSH2 0x1F2 PUSH2 0x20E CALLDATASIZE PUSH1 0x4 PUSH2 0x11A5 JUMP JUMPDEST PUSH1 0x1 PUSH1 0x1 PUSH1 0xA0 SHL SUB AND PUSH1 0x0 SWAP1 DUP2 MSTORE PUSH1 0x9 PUSH1 0x20 MSTORE PUSH1 0x40 SWAP1 KECCAK256 SLOAD SWAP1 JUMP JUMPDEST PUSH2 0x1E7 PUSH2 0x237 CALLDATASIZE PUSH1 0x4 PUSH2 0x13D1 JUMP JUMPDEST PUSH2 0x511 JUMP JUMPDEST PUSH2 0x1E7 PUSH2 0x24A CALLDATASIZE PUSH1 0x4 PUSH2 0x14CA JUMP JUMPDEST PUSH2 0x6BB JUMP JUMPDEST PUSH1 0x6 SLOAD PUSH2 0x1F2 JUMP JUMPDEST PUSH2 0x26A PUSH2 0x265 CALLDATASIZE PUSH1 0x4 PUSH2 0x11A5 JUMP JUMPDEST PUSH2 0x7CD JUMP JUMPDEST PUSH1 0x40 MLOAD PUSH2 0x17B SWAP2 SWAP1 PUSH2 0x1540 JUMP JUMPDEST PUSH2 0x1E7 PUSH2 0x948 JUMP JUMPDEST PUSH1 0x0 SLOAD PUSH1 0x40 MLOAD PUSH1 0x1 PUSH1 0x1 PUSH1 0xA0 SHL SUB SWAP1 SWAP2 AND DUP2 MSTORE PUSH1 0x20 ADD PUSH2 0x17B JUMP JUMPDEST PUSH2 0x1E7 PUSH2 0x2A8 CALLDATASIZE PUSH1 0x4 PUSH2 0x1590 JUMP JUMPDEST PUSH2 0x9AE JUMP JUMPDEST PUSH2 0x1E7 PUSH2 0x2BB CALLDATASIZE PUSH1 0x4 PUSH2 0x15B2 JUMP JUMPDEST PUSH2 0xA34 JUMP JUMPDEST PUSH2 0x1E7 PUSH2 0x2CE CALLDATASIZE PUSH1 0x4 PUSH2 0x127E JUMP JUMPDEST POP JUMP JUMPDEST PUSH2 0x2F4 PUSH2 0x2DF CALLDATASIZE PUSH1 0x4 PUSH2 0x160C JUMP JUMPDEST PUSH1 0x8 PUSH1 0x20 MSTORE PUSH1 0x0 SWAP1 DUP2 MSTORE PUSH1 0x40 SWAP1 KECCAK256 SLOAD PUSH1 0xFF AND DUP2 JUMP JUMPDEST PUSH1 0x40 MLOAD PUSH2 0x17B SWAP2 SWAP1 PUSH2 0x1625 JUMP JUMPDEST PUSH2 0x1E7 PUSH2 0xB07 JUMP JUMPDEST PUSH2 0x1E7 PUSH2 0x317 CALLDATASIZE PUSH1 0x4 PUSH2 0x160C JUMP JUMPDEST PUSH2 0xC42 JUMP JUMPDEST PUSH2 0x1E7 PUSH2 0x32A CALLDATASIZE PUSH1 0x4 PUSH2 0x11A5 JUMP JUMPDEST PUSH2 0xCAE JUMP JUMPDEST PUSH2 0x1F2 PUSH2 0x33D CALLDATASIZE PUSH1 0x4 PUSH2 0x11A5 JUMP JUMPDEST PUSH1 0x9 PUSH1 0x20 MSTORE PUSH1 0x0 SWAP1 DUP2 MSTORE PUSH1 0x40 SWAP1 KECCAK256 SLOAD DUP2 JUMP JUMPDEST PUSH2 0x381 PUSH1 0x40 MLOAD DUP1 PUSH1 0xA0 ADD PUSH1 0x40 MSTORE DUP1 PUSH1 0x0 DUP2 MSTORE PUSH1 0x20 ADD PUSH1 0x0 DUP2 MSTORE PUSH1 0x20 ADD PUSH1 0x0 DUP2 MSTORE PUSH1 0x20 ADD PUSH1 0x0 DUP2 MSTORE PUSH1 0x20 ADD PUSH1 0x0 DUP2 MSTORE POP SWAP1 JUMP JUMPDEST POP PUSH1 0x1 PUSH1 0x1 PUSH1 0xA0 SHL SUB AND PUSH1 0x0 SWAP1 DUP2 MSTORE PUSH1 0xA PUSH1 0x20 SWAP1 DUP2 MSTORE PUSH1 0x40 SWAP2 DUP3 SWAP1 KECCAK256 DUP3 MLOAD PUSH1 0xA0 DUP2 ADD DUP5 MSTORE DUP2 SLOAD DUP2 MSTORE PUSH1 0x1 DUP3 ADD SLOAD SWAP3 DUP2 ADD SWAP3 SWAP1 SWAP3 MSTORE PUSH1 0x2 DUP2 ADD SLOAD SWAP3 DUP3 ADD SWAP3 SWAP1 SWAP3 MSTORE PUSH1 0x3 DUP3 ADD SLOAD PUSH1 0x60 DUP3 ADD MSTORE PUSH1 0x4 SWAP1 SWAP2 ADD SLOAD PUSH1 0x80 DUP3 ADD MSTORE SWAP1 JUMP JUMPDEST PUSH1 0x40 DUP1 MLOAD DUP1 DUP3 ADD SWAP1 SWAP2 MSTORE PUSH1 0x60 DUP1 DUP3 MSTORE PUSH1 0x20 DUP3 ADD MSTORE PUSH1 0xB DUP3 PUSH1 0x40 MLOAD PUSH2 0x3FD SWAP2 SWAP1 PUSH2 0x164D JUMP JUMPDEST SWAP1 DUP2 MSTORE PUSH1 0x20 ADD PUSH1 0x40 MLOAD DUP1 SWAP2 SUB SWAP1 KECCAK256 PUSH1 0x40 MLOAD DUP1 PUSH1 0x40 ADD PUSH1 0x40 MSTORE SWAP1 DUP2 PUSH1 0x0 DUP3 ADD DUP1 SLOAD PUSH2 0x426 SWAP1 PUSH2 0x1669 JUMP JUMPDEST DUP1 PUSH1 0x1F ADD PUSH1 0x20 DUP1 SWAP2 DIV MUL PUSH1 0x20 ADD PUSH1 0x40 MLOAD SWAP1 DUP2 ADD PUSH1 0x40 MSTORE DUP1 SWAP3 SWAP2 SWAP1 DUP2 DUP2 MSTORE PUSH1 0x20 ADD DUP3 DUP1 SLOAD PUSH2 0x452 SWAP1 PUSH2 0x1669 JUMP JUMPDEST DUP1 ISZERO PUSH2 0x49F JUMPI DUP1 PUSH1 0x1F LT PUSH2 0x474 JUMPI PUSH2 0x100 DUP1 DUP4 SLOAD DIV MUL DUP4 MSTORE SWAP2 PUSH1 0x20 ADD SWAP2 PUSH2 0x49F JUMP JUMPDEST DUP3 ADD SWAP2 SWAP1 PUSH1 0x0 MSTORE PUSH1 0x20 PUSH1 0x0 KECCAK256 SWAP1 JUMPDEST DUP2 SLOAD DUP2 MSTORE SWAP1 PUSH1 0x1 ADD SWAP1 PUSH1 0x20 ADD DUP1 DUP4 GT PUSH2 0x482 JUMPI DUP3 SWAP1 SUB PUSH1 0x1F AND DUP3 ADD SWAP2 JUMPDEST POP POP POP POP POP DUP2 MSTORE PUSH1 0x20 ADD PUSH1 0x1 DUP3 ADD DUP1 SLOAD DUP1 PUSH1 0x20 MUL PUSH1 0x20 ADD PUSH1 0x40 MLOAD SWAP1 DUP2 ADD PUSH1 0x40 MSTORE DUP1 SWAP3 SWAP2 SWAP1 DUP2 DUP2 MSTORE PUSH1 0x20 ADD DUP3 DUP1 SLOAD DUP1 ISZERO PUSH2 0x501 JUMPI PUSH1 0x20 MUL DUP3 ADD SWAP2 SWAP1 PUSH1 0x0 MSTORE PUSH1 0x20 PUSH1 0x0 KECCAK256 SWAP1 JUMPDEST DUP2 SLOAD PUSH1 0x1 PUSH1 0x1 PUSH1 0xA0 SHL SUB AND DUP2 MSTORE PUSH1 0x1 SWAP1 SWAP2 ADD SWAP1 PUSH1 0x20 ADD DUP1 DUP4 GT PUSH2 0x4E3 JUMPI JUMPDEST POP POP POP POP POP DUP2 MSTORE POP POP SWAP1 POP SWAP2 SWAP1 POP JUMP JUMPDEST CALLER PUSH1 0x0 SWAP1 DUP2 MSTORE PUSH1 0x9 PUSH1 0x20 MSTORE PUSH1 0x40 SWAP1 KECCAK256 SLOAD ISZERO PUSH2 0x56A JUMPI PUSH1 0x40 MLOAD PUSH3 0x461BCD PUSH1 0xE5 SHL DUP2 MSTORE PUSH1 0x20 PUSH1 0x4 DUP3 ADD MSTORE PUSH1 0x14 PUSH1 0x24 DUP3 ADD MSTORE PUSH20 0x5573657220616C72656164792065786973747321 PUSH1 0x60 SHL PUSH1 0x44 DUP3 ADD MSTORE PUSH1 0x64 ADD JUMPDEST PUSH1 0x40 MLOAD DUP1 SWAP2 SUB SWAP1 REVERT JUMPDEST PUSH2 0x572 PUSH2 0xB07 JUMP JUMPDEST PUSH1 0x40 DUP1 MLOAD PUSH1 0x60 DUP2 ADD DUP3 MSTORE DUP4 DUP2 MSTORE PUSH1 0x20 DUP1 DUP3 ADD DUP5 SWAP1 MSTORE PUSH1 0x4 SLOAD DUP3 DUP5 ADD MSTORE CALLER PUSH1 0x0 SWAP1 DUP2 MSTORE PUSH1 0x7 DUP3 MSTORE SWAP3 SWAP1 SWAP3 KECCAK256 DUP2 MLOAD DUP1 MLOAD SWAP3 SWAP4 DUP5 SWAP4 PUSH2 0x5B1 SWAP3 DUP5 SWAP3 ADD SWAP1 PUSH2 0x109B JUMP JUMPDEST POP PUSH1 0x20 DUP3 DUP2 ADD MLOAD DUP1 MLOAD PUSH2 0x5CA SWAP3 PUSH1 0x1 DUP6 ADD SWAP3 ADD SWAP1 PUSH2 0x109B JUMP JUMPDEST POP PUSH1 0x40 SWAP2 DUP3 ADD MLOAD PUSH1 0x2 SWAP2 DUP3 ADD SSTORE DUP2 MLOAD PUSH1 0xA0 DUP2 ADD DUP4 MSTORE PUSH1 0x0 DUP1 DUP3 MSTORE PUSH1 0x20 DUP1 DUP4 ADD DUP3 DUP2 MSTORE DUP4 DUP7 ADD DUP4 DUP2 MSTORE PUSH1 0x60 DUP6 ADD DUP5 DUP2 MSTORE PUSH1 0x80 DUP7 ADD DUP6 DUP2 MSTORE CALLER DUP1 DUP8 MSTORE PUSH1 0xA SWAP1 SWAP6 MSTORE SWAP8 DUP6 KECCAK256 DUP7 MLOAD DUP2 SSTORE SWAP3 MLOAD PUSH1 0x1 DUP1 DUP6 ADD SWAP2 SWAP1 SWAP2 SSTORE SWAP2 MLOAD SWAP7 DUP4 ADD SWAP7 SWAP1 SWAP7 SSTORE SWAP5 MLOAD PUSH1 0x3 DUP3 ADD SSTORE SWAP5 MLOAD PUSH1 0x4 SWAP1 SWAP6 ADD SWAP5 SWAP1 SWAP5 SSTORE PUSH1 0x6 DUP1 SLOAD SWAP4 DUP5 ADD DUP2 SSTORE SWAP1 MSTORE PUSH32 0xF652222313E28459528D920B65115C16C04F3EFC82AAEDC97BE59F3F377C0D3F SWAP1 SWAP2 ADD DUP1 SLOAD PUSH1 0x1 PUSH1 0x1 PUSH1 0xA0 SHL SUB NOT AND DUP4 OR SWAP1 SSTORE SWAP1 PUSH2 0x681 SWAP1 PUSH1 0x64 PUSH2 0xD76 JUMP JUMPDEST PUSH1 0x40 MLOAD CALLER DUP2 MSTORE PUSH32 0xA22187EC83AA1B90E4EFBAA4F24CE6B70A007F97923B5878C0FB8026C2FEBE79 SWAP1 PUSH1 0x20 ADD JUMPDEST PUSH1 0x40 MLOAD DUP1 SWAP2 SUB SWAP1 LOG1 POP POP POP POP JUMP JUMPDEST PUSH2 0x6C5 CALLER DUP3 PUSH2 0xE1F JUMP JUMPDEST ISZERO ISZERO PUSH1 0x1 EQ PUSH2 0x6E6 JUMPI PUSH1 0x40 MLOAD PUSH3 0x461BCD PUSH1 0xE5 SHL DUP2 MSTORE PUSH1 0x4 ADD PUSH2 0x561 SWAP1 PUSH2 0x16A4 JUMP JUMPDEST PUSH1 0x1 DUP4 ISZERO ISZERO EQ PUSH2 0x730 JUMPI PUSH1 0x40 MLOAD PUSH3 0x461BCD PUSH1 0xE5 SHL DUP2 MSTORE PUSH1 0x20 PUSH1 0x4 DUP3 ADD MSTORE PUSH1 0x15 PUSH1 0x24 DUP3 ADD MSTORE PUSH21 0x10DBDB9CD95B9CDD5CC81B9BDD081C995858DA1959 PUSH1 0x5A SHL PUSH1 0x44 DUP3 ADD MSTORE PUSH1 0x64 ADD PUSH2 0x561 JUMP JUMPDEST PUSH1 0x40 DUP1 MLOAD DUP1 DUP3 ADD DUP3 MSTORE DUP4 DUP2 MSTORE PUSH1 0x20 DUP2 ADD DUP4 SWAP1 MSTORE SWAP1 MLOAD DUP2 SWAP1 PUSH1 0xB SWAP1 PUSH2 0x755 SWAP1 DUP7 SWAP1 PUSH2 0x164D JUMP JUMPDEST SWAP1 DUP2 MSTORE PUSH1 0x20 ADD PUSH1 0x40 MLOAD DUP1 SWAP2 SUB SWAP1 KECCAK256 PUSH1 0x0 DUP3 ADD MLOAD DUP2 PUSH1 0x0 ADD SWAP1 DUP1 MLOAD SWAP1 PUSH1 0x20 ADD SWAP1 PUSH2 0x77F SWAP3 SWAP2 SWAP1 PUSH2 0x109B JUMP JUMPDEST POP PUSH1 0x20 DUP3 DUP2 ADD MLOAD DUP1 MLOAD PUSH2 0x798 SWAP3 PUSH1 0x1 DUP6 ADD SWAP3 ADD SWAP1 PUSH2 0x111F JUMP JUMPDEST POP SWAP1 POP POP PUSH32 0x9C5C2780A8755DFA42A837FA1D2F3272CB07B4EFF3717C9F0BBC1618F9F30617 DUP4 DUP6 PUSH1 0x40 MLOAD PUSH2 0x6AD SWAP3 SWAP2 SWAP1 PUSH2 0x16E5 JUMP JUMPDEST PUSH2 0x7F1 PUSH1 0x40 MLOAD DUP1 PUSH1 0x60 ADD PUSH1 0x40 MSTORE DUP1 PUSH1 0x60 DUP2 MSTORE PUSH1 0x20 ADD PUSH1 0x60 DUP2 MSTORE PUSH1 0x20 ADD PUSH1 0x0 DUP2 MSTORE POP SWAP1 JUMP JUMPDEST PUSH1 0x1 PUSH1 0x1 PUSH1 0xA0 SHL SUB DUP3 AND PUSH1 0x0 SWAP1 DUP2 MSTORE PUSH1 0x7 PUSH1 0x20 MSTORE PUSH1 0x40 SWAP1 DUP2 SWAP1 KECCAK256 DUP2 MLOAD PUSH1 0x60 DUP2 ADD SWAP1 SWAP3 MSTORE DUP1 SLOAD DUP3 SWAP1 DUP3 SWAP1 PUSH2 0x823 SWAP1 PUSH2 0x1669 JUMP JUMPDEST DUP1 PUSH1 0x1F ADD PUSH1 0x20 DUP1 SWAP2 DIV MUL PUSH1 0x20 ADD PUSH1 0x40 MLOAD SWAP1 DUP2 ADD PUSH1 0x40 MSTORE DUP1 SWAP3 SWAP2 SWAP1 DUP2 DUP2 MSTORE PUSH1 0x20 ADD DUP3 DUP1 SLOAD PUSH2 0x84F SWAP1 PUSH2 0x1669 JUMP JUMPDEST DUP1 ISZERO PUSH2 0x89C JUMPI DUP1 PUSH1 0x1F LT PUSH2 0x871 JUMPI PUSH2 0x100 DUP1 DUP4 SLOAD DIV MUL DUP4 MSTORE SWAP2 PUSH1 0x20 ADD SWAP2 PUSH2 0x89C JUMP JUMPDEST DUP3 ADD SWAP2 SWAP1 PUSH1 0x0 MSTORE PUSH1 0x20 PUSH1 0x0 KECCAK256 SWAP1 JUMPDEST DUP2 SLOAD DUP2 MSTORE SWAP1 PUSH1 0x1 ADD SWAP1 PUSH1 0x20 ADD DUP1 DUP4 GT PUSH2 0x87F JUMPI DUP3 SWAP1 SUB PUSH1 0x1F AND DUP3 ADD SWAP2 JUMPDEST POP POP POP POP POP DUP2 MSTORE PUSH1 0x20 ADD PUSH1 0x1 DUP3 ADD DUP1 SLOAD PUSH2 0x8B5 SWAP1 PUSH2 0x1669 JUMP JUMPDEST DUP1 PUSH1 0x1F ADD PUSH1 0x20 DUP1 SWAP2 DIV MUL PUSH1 0x20 ADD PUSH1 0x40 MLOAD SWAP1 DUP2 ADD PUSH1 0x40 MSTORE DUP1 SWAP3 SWAP2 SWAP1 DUP2 DUP2 MSTORE PUSH1 0x20 ADD DUP3 DUP1 SLOAD PUSH2 0x8E1 SWAP1 PUSH2 0x1669 JUMP JUMPDEST DUP1 ISZERO PUSH2 0x92E JUMPI DUP1 PUSH1 0x1F LT PUSH2 0x903 JUMPI PUSH2 0x100 DUP1 DUP4 SLOAD DIV MUL DUP4 MSTORE SWAP2 PUSH1 0x20 ADD SWAP2 PUSH2 0x92E JUMP JUMPDEST DUP3 ADD SWAP2 SWAP1 PUSH1 0x0 MSTORE PUSH1 0x20 PUSH1 0x0 KECCAK256 SWAP1 JUMPDEST DUP2 SLOAD DUP2 MSTORE SWAP1 PUSH1 0x1 ADD SWAP1 PUSH1 0x20 ADD DUP1 DUP4 GT PUSH2 0x911 JUMPI DUP3 SWAP1 SUB PUSH1 0x1F AND DUP3 ADD SWAP2 JUMPDEST POP POP POP POP POP DUP2 MSTORE PUSH1 0x20 ADD PUSH1 0x2 DUP3 ADD SLOAD DUP2 MSTORE POP POP SWAP1 POP SWAP2 SWAP1 POP JUMP JUMPDEST PUSH1 0x0 SLOAD PUSH1 0x1 PUSH1 0x1 PUSH1 0xA0 SHL SUB AND CALLER EQ PUSH2 0x9A2 JUMPI PUSH1 0x40 MLOAD PUSH3 0x461BCD PUSH1 0xE5 SHL DUP2 MSTORE PUSH1 0x20 PUSH1 0x4 DUP3 ADD DUP2 SWAP1 MSTORE PUSH1 0x24 DUP3 ADD MSTORE PUSH32 0x4F776E61626C653A2063616C6C6572206973206E6F7420746865206F776E6572 PUSH1 0x44 DUP3 ADD MSTORE PUSH1 0x64 ADD PUSH2 0x561 JUMP JUMPDEST PUSH2 0x9AC PUSH1 0x0 PUSH2 0xE7F JUMP JUMPDEST JUMP JUMPDEST CALLER PUSH1 0x1 PUSH1 0x1 PUSH1 0xA0 SHL SUB PUSH32 0x0 AND EQ PUSH2 0xA26 JUMPI PUSH1 0x40 MLOAD PUSH3 0x461BCD PUSH1 0xE5 SHL DUP2 MSTORE PUSH1 0x20 PUSH1 0x4 DUP3 ADD MSTORE PUSH1 0x1F PUSH1 0x24 DUP3 ADD MSTORE PUSH32 0x4F6E6C7920565246436F6F7264696E61746F722063616E2066756C66696C6C00 PUSH1 0x44 DUP3 ADD MSTORE PUSH1 0x64 ADD PUSH2 0x561 JUMP JUMPDEST PUSH2 0xA30 DUP3 DUP3 PUSH2 0xECF JUMP JUMPDEST POP POP JUMP JUMPDEST PUSH2 0xA3E CALLER DUP3 PUSH2 0xE1F JUMP JUMPDEST ISZERO ISZERO PUSH1 0x1 EQ PUSH2 0xA5F JUMPI PUSH1 0x40 MLOAD PUSH3 0x461BCD PUSH1 0xE5 SHL DUP2 MSTORE PUSH1 0x4 ADD PUSH2 0x561 SWAP1 PUSH2 0x16A4 JUMP JUMPDEST PUSH1 0x40 DUP1 MLOAD DUP1 DUP3 ADD DUP3 MSTORE DUP4 DUP2 MSTORE PUSH1 0x20 DUP2 ADD DUP4 SWAP1 MSTORE SWAP1 MLOAD DUP2 SWAP1 PUSH1 0xB SWAP1 PUSH2 0xA84 SWAP1 DUP7 SWAP1 PUSH2 0x164D JUMP JUMPDEST SWAP1 DUP2 MSTORE PUSH1 0x20 ADD PUSH1 0x40 MLOAD DUP1 SWAP2 SUB SWAP1 KECCAK256 PUSH1 0x0 DUP3 ADD MLOAD DUP2 PUSH1 0x0 ADD SWAP1 DUP1 MLOAD SWAP1 PUSH1 0x20 ADD SWAP1 PUSH2 0xAAE SWAP3 SWAP2 SWAP1 PUSH2 0x109B JUMP JUMPDEST POP PUSH1 0x20 DUP3 DUP2 ADD MLOAD DUP1 MLOAD PUSH2 0xAC7 SWAP3 PUSH1 0x1 DUP6 ADD SWAP3 ADD SWAP1 PUSH2 0x111F JUMP JUMPDEST POP SWAP1 POP POP PUSH32 0x54B13326DCE0F4CDD781A4F93A66E725CBDB6247CD4E6C00064C18B39D07BB35 DUP4 PUSH1 0x40 MLOAD PUSH2 0xAFA SWAP2 SWAP1 PUSH2 0x1709 JUMP JUMPDEST PUSH1 0x40 MLOAD DUP1 SWAP2 SUB SWAP1 LOG1 POP POP POP JUMP JUMPDEST PUSH1 0x3 SLOAD PUSH1 0x40 MLOAD PUSH4 0x70A08231 PUSH1 0xE0 SHL DUP2 MSTORE ADDRESS PUSH1 0x4 DUP3 ADD MSTORE PUSH32 0x0 PUSH1 0x1 PUSH1 0x1 PUSH1 0xA0 SHL SUB AND SWAP1 PUSH4 0x70A08231 SWAP1 PUSH1 0x24 ADD PUSH1 0x20 PUSH1 0x40 MLOAD DUP1 DUP4 SUB DUP2 DUP7 GAS STATICCALL ISZERO DUP1 ISZERO PUSH2 0xB6E JUMPI RETURNDATASIZE PUSH1 0x0 DUP1 RETURNDATACOPY RETURNDATASIZE PUSH1 0x0 REVERT JUMPDEST POP POP POP POP PUSH1 0x40 MLOAD RETURNDATASIZE PUSH1 0x1F NOT PUSH1 0x1F DUP3 ADD AND DUP3 ADD DUP1 PUSH1 0x40 MSTORE POP DUP2 ADD SWAP1 PUSH2 0xB92 SWAP2 SWAP1 PUSH2 0x171C JUMP JUMPDEST LT ISZERO PUSH2 0xBF4 JUMPI PUSH1 0x40 MLOAD PUSH3 0x461BCD PUSH1 0xE5 SHL DUP2 MSTORE PUSH1 0x20 PUSH1 0x4 DUP3 ADD MSTORE PUSH1 0x2B PUSH1 0x24 DUP3 ADD MSTORE PUSH32 0x4E6F7420656E6F756768204C494E4B202D2066696C6C20636F6E747261637420 PUSH1 0x44 DUP3 ADD MSTORE PUSH11 0x1DDA5D1A0819985D58D95D PUSH1 0xAA SHL PUSH1 0x64 DUP3 ADD MSTORE PUSH1 0x84 ADD PUSH2 0x561 JUMP JUMPDEST PUSH1 0x0 PUSH2 0xC04 PUSH1 0x2 SLOAD PUSH1 0x3 SLOAD PUSH2 0xF18 JUMP JUMPDEST SWAP1 POP PUSH32 0xE5F5B44D72D4143C278EB745C4ACC0695C4A5BC616BE5BEECF46ABE29661780E DUP2 PUSH1 0x40 MLOAD PUSH2 0xC37 SWAP2 DUP2 MSTORE PUSH1 0x20 ADD SWAP1 JUMP JUMPDEST PUSH1 0x40 MLOAD DUP1 SWAP2 SUB SWAP1 LOG1 POP JUMP JUMPDEST DUP1 PUSH1 0xA EQ PUSH2 0xC4F JUMPI PUSH1 0x0 DUP1 REVERT JUMPDEST CALLER PUSH1 0x0 SWAP1 DUP2 MSTORE PUSH1 0x9 PUSH1 0x20 MSTORE PUSH1 0x40 SWAP1 KECCAK256 SLOAD PUSH2 0xC6B SWAP1 PUSH1 0xA SWAP1 PUSH2 0x174B JUMP JUMPDEST CALLER PUSH1 0x0 SWAP1 DUP2 MSTORE PUSH1 0x9 PUSH1 0x20 SWAP1 DUP2 MSTORE PUSH1 0x40 SWAP2 DUP3 SWAP1 KECCAK256 SWAP3 SWAP1 SWAP3 SSTORE MLOAD DUP3 DUP2 MSTORE PUSH32 0x89E69B6FA2D69C7EB45B6AF3918DBAA99E08CC13755F03EAD1BE356D699558D2 SWAP2 ADD PUSH2 0xC37 JUMP JUMPDEST PUSH1 0x0 SLOAD PUSH1 0x1 PUSH1 0x1 PUSH1 0xA0 SHL SUB AND CALLER EQ PUSH2 0xD08 JUMPI PUSH1 0x40 MLOAD PUSH3 0x461BCD PUSH1 0xE5 SHL DUP2 MSTORE PUSH1 0x20 PUSH1 0x4 DUP3 ADD DUP2 SWAP1 MSTORE PUSH1 0x24 DUP3 ADD MSTORE PUSH32 0x4F776E61626C653A2063616C6C6572206973206E6F7420746865206F776E6572 PUSH1 0x44 DUP3 ADD MSTORE PUSH1 0x64 ADD PUSH2 0x561 JUMP JUMPDEST PUSH1 0x1 PUSH1 0x1 PUSH1 0xA0 SHL SUB DUP2 AND PUSH2 0xD6D JUMPI PUSH1 0x40 MLOAD PUSH3 0x461BCD PUSH1 0xE5 SHL DUP2 MSTORE PUSH1 0x20 PUSH1 0x4 DUP3 ADD MSTORE PUSH1 0x26 PUSH1 0x24 DUP3 ADD MSTORE PUSH32 0x4F776E61626C653A206E6577206F776E657220697320746865207A65726F2061 PUSH1 0x44 DUP3 ADD MSTORE PUSH6 0x646472657373 PUSH1 0xD0 SHL PUSH1 0x64 DUP3 ADD MSTORE PUSH1 0x84 ADD PUSH2 0x561 JUMP JUMPDEST PUSH2 0x2CE DUP2 PUSH2 0xE7F JUMP JUMPDEST PUSH1 0x64 DUP2 LT ISZERO PUSH2 0xDC7 JUMPI PUSH1 0x40 MLOAD PUSH3 0x461BCD PUSH1 0xE5 SHL DUP2 MSTORE PUSH1 0x20 PUSH1 0x4 DUP3 ADD DUP2 SWAP1 MSTORE PUSH1 0x24 DUP3 ADD MSTORE PUSH32 0x546865204D696E696D756D20616D6F756E742073686F756C6420626520313030 PUSH1 0x44 DUP3 ADD MSTORE PUSH1 0x64 ADD PUSH2 0x561 JUMP JUMPDEST PUSH1 0x1 PUSH1 0x1 PUSH1 0xA0 SHL SUB DUP3 AND PUSH1 0x0 DUP2 DUP2 MSTORE PUSH1 0x9 PUSH1 0x20 SWAP1 DUP2 MSTORE PUSH1 0x40 SWAP2 DUP3 SWAP1 KECCAK256 DUP5 SWAP1 SSTORE DUP2 MLOAD SWAP3 DUP4 MSTORE DUP3 ADD DUP4 SWAP1 MSTORE PUSH32 0x2D570FBA1492852E40BFA341311A0467B1EBF0D0755E4E405F2F3BAC9C8A23E SWAP2 ADD PUSH1 0x40 MLOAD DUP1 SWAP2 SUB SWAP1 LOG1 POP POP JUMP JUMPDEST PUSH1 0x0 DUP1 DUP1 JUMPDEST DUP4 MLOAD DUP2 LT ISZERO PUSH2 0xE77 JUMPI DUP5 PUSH1 0x1 PUSH1 0x1 PUSH1 0xA0 SHL SUB AND DUP5 DUP3 DUP2 MLOAD DUP2 LT PUSH2 0xE49 JUMPI PUSH2 0xE49 PUSH2 0x1762 JUMP JUMPDEST PUSH1 0x20 MUL PUSH1 0x20 ADD ADD MLOAD PUSH1 0x1 PUSH1 0x1 PUSH1 0xA0 SHL SUB AND EQ ISZERO PUSH2 0xE65 JUMPI PUSH1 0x1 SWAP2 POP JUMPDEST DUP1 PUSH2 0xE6F DUP2 PUSH2 0x1778 JUMP JUMPDEST SWAP2 POP POP PUSH2 0xE24 JUMP JUMPDEST POP SWAP4 SWAP3 POP POP POP JUMP JUMPDEST PUSH1 0x0 DUP1 SLOAD PUSH1 0x1 PUSH1 0x1 PUSH1 0xA0 SHL SUB DUP4 DUP2 AND PUSH1 0x1 PUSH1 0x1 PUSH1 0xA0 SHL SUB NOT DUP4 AND DUP2 OR DUP5 SSTORE PUSH1 0x40 MLOAD SWAP2 SWAP1 SWAP3 AND SWAP3 DUP4 SWAP2 PUSH32 0x8BE0079C531659141344CD1FD0A4F28419497F9722A3DAAFE3B4186F6B6457E0 SWAP2 SWAP1 LOG3 POP POP JUMP JUMPDEST PUSH1 0x0 DUP2 GT PUSH2 0xF12 JUMPI PUSH1 0x40 MLOAD PUSH3 0x461BCD PUSH1 0xE5 SHL DUP2 MSTORE PUSH1 0x20 PUSH1 0x4 DUP3 ADD MSTORE PUSH1 0x10 PUSH1 0x24 DUP3 ADD MSTORE PUSH16 0x1C985B991BDB481B9BDD08199BDD5B99 PUSH1 0x82 SHL PUSH1 0x44 DUP3 ADD MSTORE PUSH1 0x64 ADD PUSH2 0x561 JUMP JUMPDEST PUSH1 0x4 SSTORE POP JUMP JUMPDEST PUSH1 0x0 PUSH32 0x0 PUSH1 0x1 PUSH1 0x1 PUSH1 0xA0 SHL SUB AND PUSH4 0x4000AEA0 PUSH32 0x0 DUP5 DUP7 PUSH1 0x0 PUSH1 0x40 MLOAD PUSH1 0x20 ADD PUSH2 0xF88 SWAP3 SWAP2 SWAP1 SWAP2 DUP3 MSTORE PUSH1 0x20 DUP3 ADD MSTORE PUSH1 0x40 ADD SWAP1 JUMP JUMPDEST PUSH1 0x40 MLOAD PUSH1 0x20 DUP2 DUP4 SUB SUB DUP2 MSTORE SWAP1 PUSH1 0x40 MSTORE PUSH1 0x40 MLOAD DUP5 PUSH4 0xFFFFFFFF AND PUSH1 0xE0 SHL DUP2 MSTORE PUSH1 0x4 ADD PUSH2 0xFB5 SWAP4 SWAP3 SWAP2 SWAP1 PUSH2 0x1793 JUMP JUMPDEST PUSH1 0x20 PUSH1 0x40 MLOAD DUP1 DUP4 SUB DUP2 PUSH1 0x0 DUP8 GAS CALL ISZERO DUP1 ISZERO PUSH2 0xFD4 JUMPI RETURNDATASIZE PUSH1 0x0 DUP1 RETURNDATACOPY RETURNDATASIZE PUSH1 0x0 REVERT JUMPDEST POP POP POP POP PUSH1 0x40 MLOAD RETURNDATASIZE PUSH1 0x1F NOT PUSH1 0x1F DUP3 ADD AND DUP3 ADD DUP1 PUSH1 0x40 MSTORE POP DUP2 ADD SWAP1 PUSH2 0xFF8 SWAP2 SWAP1 PUSH2 0x17C3 JUMP JUMPDEST POP PUSH1 0x0 DUP4 DUP2 MSTORE PUSH1 0x1 PUSH1 0x20 DUP2 DUP2 MSTORE PUSH1 0x40 DUP1 DUP5 KECCAK256 SLOAD DUP2 MLOAD DUP1 DUP5 ADD DUP10 SWAP1 MSTORE DUP1 DUP4 ADD DUP7 SWAP1 MSTORE ADDRESS PUSH1 0x60 DUP3 ADD MSTORE PUSH1 0x80 DUP1 DUP3 ADD DUP4 SWAP1 MSTORE DUP4 MLOAD DUP1 DUP4 SUB SWAP1 SWAP2 ADD DUP2 MSTORE PUSH1 0xA0 SWAP1 SWAP2 ADD SWAP1 SWAP3 MSTORE DUP2 MLOAD SWAP2 DUP4 ADD SWAP2 SWAP1 SWAP2 KECCAK256 SWAP4 DUP8 SWAP1 MSTORE SWAP1 DUP3 SWAP1 MSTORE PUSH2 0x1053 SWAP2 PUSH2 0x17E0 JUMP JUMPDEST PUSH1 0x0 DUP6 DUP2 MSTORE PUSH1 0x1 PUSH1 0x20 MSTORE PUSH1 0x40 SWAP1 KECCAK256 SSTORE PUSH2 0x1093 DUP5 DUP3 PUSH1 0x40 DUP1 MLOAD PUSH1 0x20 DUP1 DUP3 ADD SWAP5 SWAP1 SWAP5 MSTORE DUP1 DUP3 ADD SWAP3 SWAP1 SWAP3 MSTORE DUP1 MLOAD DUP1 DUP4 SUB DUP3 ADD DUP2 MSTORE PUSH1 0x60 SWAP1 SWAP3 ADD SWAP1 MSTORE DUP1 MLOAD SWAP2 ADD KECCAK256 SWAP1 JUMP JUMPDEST SWAP5 SWAP4 POP POP POP POP JUMP JUMPDEST DUP3 DUP1 SLOAD PUSH2 0x10A7 SWAP1 PUSH2 0x1669 JUMP JUMPDEST SWAP1 PUSH1 0x0 MSTORE PUSH1 0x20 PUSH1 0x0 KECCAK256 SWAP1 PUSH1 0x1F ADD PUSH1 0x20 SWAP1 DIV DUP2 ADD SWAP3 DUP3 PUSH2 0x10C9 JUMPI PUSH1 0x0 DUP6 SSTORE PUSH2 0x110F JUMP JUMPDEST DUP3 PUSH1 0x1F LT PUSH2 0x10E2 JUMPI DUP1 MLOAD PUSH1 0xFF NOT AND DUP4 DUP1 ADD OR DUP6 SSTORE PUSH2 0x110F JUMP JUMPDEST DUP3 DUP1 ADD PUSH1 0x1 ADD DUP6 SSTORE DUP3 ISZERO PUSH2 0x110F JUMPI SWAP2 DUP3 ADD JUMPDEST DUP3 DUP2 GT ISZERO PUSH2 0x110F JUMPI DUP3 MLOAD DUP3 SSTORE SWAP2 PUSH1 0x20 ADD SWAP2 SWAP1 PUSH1 0x1 ADD SWAP1 PUSH2 0x10F4 JUMP JUMPDEST POP PUSH2 0x111B SWAP3 SWAP2 POP PUSH2 0x1174 JUMP JUMPDEST POP SWAP1 JUMP JUMPDEST DUP3 DUP1 SLOAD DUP3 DUP3 SSTORE SWAP1 PUSH1 0x0 MSTORE PUSH1 0x20 PUSH1 0x0 KECCAK256 SWAP1 DUP2 ADD SWAP3 DUP3 ISZERO PUSH2 0x110F JUMPI SWAP2 PUSH1 0x20 MUL DUP3 ADD JUMPDEST DUP3 DUP2 GT ISZERO PUSH2 0x110F JUMPI DUP3 MLOAD DUP3 SLOAD PUSH1 0x1 PUSH1 0x1 PUSH1 0xA0 SHL SUB NOT AND PUSH1 0x1 PUSH1 0x1 PUSH1 0xA0 SHL SUB SWAP1 SWAP2 AND OR DUP3 SSTORE PUSH1 0x20 SWAP1 SWAP3 ADD SWAP2 PUSH1 0x1 SWAP1 SWAP2 ADD SWAP1 PUSH2 0x113F JUMP JUMPDEST JUMPDEST DUP1 DUP3 GT ISZERO PUSH2 0x111B JUMPI PUSH1 0x0 DUP2 SSTORE PUSH1 0x1 ADD PUSH2 0x1175 JUMP JUMPDEST DUP1 CALLDATALOAD PUSH1 0x1 PUSH1 0x1 PUSH1 0xA0 SHL SUB DUP2 AND DUP2 EQ PUSH2 0x11A0 JUMPI PUSH1 0x0 DUP1 REVERT JUMPDEST SWAP2 SWAP1 POP JUMP JUMPDEST PUSH1 0x0 PUSH1 0x20 DUP3 DUP5 SUB SLT ISZERO PUSH2 0x11B7 JUMPI PUSH1 0x0 DUP1 REVERT JUMPDEST PUSH2 0x11C0 DUP3 PUSH2 0x1189 JUMP JUMPDEST SWAP4 SWAP3 POP POP POP JUMP JUMPDEST PUSH4 0x4E487B71 PUSH1 0xE0 SHL PUSH1 0x0 MSTORE PUSH1 0x41 PUSH1 0x4 MSTORE PUSH1 0x24 PUSH1 0x0 REVERT JUMPDEST PUSH1 0x40 MLOAD PUSH1 0x1F DUP3 ADD PUSH1 0x1F NOT AND DUP2 ADD PUSH8 0xFFFFFFFFFFFFFFFF DUP2 GT DUP3 DUP3 LT OR ISZERO PUSH2 0x1206 JUMPI PUSH2 0x1206 PUSH2 0x11C7 JUMP JUMPDEST PUSH1 0x40 MSTORE SWAP2 SWAP1 POP JUMP JUMPDEST PUSH1 0x0 DUP3 PUSH1 0x1F DUP4 ADD SLT PUSH2 0x121F JUMPI PUSH1 0x0 DUP1 REVERT JUMPDEST DUP2 CALLDATALOAD PUSH8 0xFFFFFFFFFFFFFFFF DUP2 GT ISZERO PUSH2 0x1239 JUMPI PUSH2 0x1239 PUSH2 0x11C7 JUMP JUMPDEST PUSH2 0x124C PUSH1 0x1F DUP3 ADD PUSH1 0x1F NOT AND PUSH1 0x20 ADD PUSH2 0x11DD JUMP JUMPDEST DUP2 DUP2 MSTORE DUP5 PUSH1 0x20 DUP4 DUP7 ADD ADD GT ISZERO PUSH2 0x1261 JUMPI PUSH1 0x0 DUP1 REVERT JUMPDEST DUP2 PUSH1 0x20 DUP6 ADD PUSH1 0x20 DUP4 ADD CALLDATACOPY PUSH1 0x0 SWAP2 DUP2 ADD PUSH1 0x20 ADD SWAP2 SWAP1 SWAP2 MSTORE SWAP4 SWAP3 POP POP POP JUMP JUMPDEST PUSH1 0x0 PUSH1 0x20 DUP3 DUP5 SUB SLT ISZERO PUSH2 0x1290 JUMPI PUSH1 0x0 DUP1 REVERT JUMPDEST DUP2 CALLDATALOAD PUSH8 0xFFFFFFFFFFFFFFFF DUP2 GT ISZERO PUSH2 0x12A7 JUMPI PUSH1 0x0 DUP1 REVERT JUMPDEST PUSH2 0x1093 DUP5 DUP3 DUP6 ADD PUSH2 0x120E JUMP JUMPDEST PUSH1 0x0 JUMPDEST DUP4 DUP2 LT ISZERO PUSH2 0x12CE JUMPI DUP2 DUP2 ADD MLOAD DUP4 DUP3 ADD MSTORE PUSH1 0x20 ADD PUSH2 0x12B6 JUMP JUMPDEST DUP4 DUP2 GT ISZERO PUSH2 0x12DD JUMPI PUSH1 0x0 DUP5 DUP5 ADD MSTORE JUMPDEST POP POP POP POP JUMP JUMPDEST PUSH1 0x0 DUP2 MLOAD DUP1 DUP5 MSTORE PUSH2 0x12FB DUP2 PUSH1 0x20 DUP7 ADD PUSH1 0x20 DUP7 ADD PUSH2 0x12B3 JUMP JUMPDEST PUSH1 0x1F ADD PUSH1 0x1F NOT AND SWAP3 SWAP1 SWAP3 ADD PUSH1 0x20 ADD SWAP3 SWAP2 POP POP JUMP JUMPDEST PUSH1 0x0 PUSH1 0x20 DUP1 DUP4 MSTORE DUP4 MLOAD PUSH1 0x40 DUP3 DUP6 ADD MSTORE PUSH2 0x132B PUSH1 0x60 DUP6 ADD DUP3 PUSH2 0x12E3 JUMP JUMPDEST DUP6 DUP4 ADD MLOAD DUP6 DUP3 SUB PUSH1 0x1F NOT ADD PUSH1 0x40 DUP8 ADD MSTORE DUP1 MLOAD DUP1 DUP4 MSTORE SWAP1 DUP5 ADD SWAP3 POP PUSH1 0x0 SWAP2 DUP5 ADD SWAP1 JUMPDEST DUP1 DUP4 LT ISZERO PUSH2 0x1375 JUMPI DUP4 MLOAD PUSH1 0x1 PUSH1 0x1 PUSH1 0xA0 SHL SUB AND DUP3 MSTORE SWAP3 DUP5 ADD SWAP3 PUSH1 0x1 SWAP3 SWAP1 SWAP3 ADD SWAP2 SWAP1 DUP5 ADD SWAP1 PUSH2 0x134C JUMP JUMPDEST POP SWAP7 SWAP6 POP POP POP POP POP POP JUMP JUMPDEST PUSH1 0x0 DUP1 PUSH1 0x0 DUP1 PUSH1 0x0 DUP1 PUSH1 0xC0 DUP8 DUP10 SUB SLT ISZERO PUSH2 0x1399 JUMPI PUSH1 0x0 DUP1 REVERT JUMPDEST DUP7 CALLDATALOAD SWAP6 POP PUSH1 0x20 DUP8 ADD CALLDATALOAD SWAP5 POP PUSH1 0x40 DUP8 ADD CALLDATALOAD SWAP4 POP PUSH1 0x60 DUP8 ADD CALLDATALOAD SWAP3 POP PUSH1 0x80 DUP8 ADD CALLDATALOAD SWAP2 POP PUSH2 0x13C5 PUSH1 0xA0 DUP9 ADD PUSH2 0x1189 JUMP JUMPDEST SWAP1 POP SWAP3 SWAP6 POP SWAP3 SWAP6 POP SWAP3 SWAP6 JUMP JUMPDEST PUSH1 0x0 DUP1 PUSH1 0x40 DUP4 DUP6 SUB SLT ISZERO PUSH2 0x13E4 JUMPI PUSH1 0x0 DUP1 REVERT JUMPDEST DUP3 CALLDATALOAD PUSH8 0xFFFFFFFFFFFFFFFF DUP1 DUP3 GT ISZERO PUSH2 0x13FC JUMPI PUSH1 0x0 DUP1 REVERT JUMPDEST PUSH2 0x1408 DUP7 DUP4 DUP8 ADD PUSH2 0x120E JUMP JUMPDEST SWAP4 POP PUSH1 0x20 DUP6 ADD CALLDATALOAD SWAP2 POP DUP1 DUP3 GT ISZERO PUSH2 0x141E JUMPI PUSH1 0x0 DUP1 REVERT JUMPDEST POP PUSH2 0x142B DUP6 DUP3 DUP7 ADD PUSH2 0x120E JUMP JUMPDEST SWAP2 POP POP SWAP3 POP SWAP3 SWAP1 POP JUMP JUMPDEST DUP1 ISZERO ISZERO DUP2 EQ PUSH2 0x2CE JUMPI PUSH1 0x0 DUP1 REVERT JUMPDEST PUSH1 0x0 DUP3 PUSH1 0x1F DUP4 ADD SLT PUSH2 0x1454 JUMPI PUSH1 0x0 DUP1 REVERT JUMPDEST DUP2 CALLDATALOAD PUSH1 0x20 PUSH8 0xFFFFFFFFFFFFFFFF DUP3 GT ISZERO PUSH2 0x1470 JUMPI PUSH2 0x1470 PUSH2 0x11C7 JUMP JUMPDEST DUP2 PUSH1 0x5 SHL PUSH2 0x147F DUP3 DUP3 ADD PUSH2 0x11DD JUMP JUMPDEST SWAP3 DUP4 MSTORE DUP5 DUP2 ADD DUP3 ADD SWAP3 DUP3 DUP2 ADD SWAP1 DUP8 DUP6 GT ISZERO PUSH2 0x1499 JUMPI PUSH1 0x0 DUP1 REVERT JUMPDEST DUP4 DUP8 ADD SWAP3 POP JUMPDEST DUP5 DUP4 LT ISZERO PUSH2 0x14BF JUMPI PUSH2 0x14B0 DUP4 PUSH2 0x1189 JUMP JUMPDEST DUP3 MSTORE SWAP2 DUP4 ADD SWAP2 SWAP1 DUP4 ADD SWAP1 PUSH2 0x149F JUMP JUMPDEST SWAP8 SWAP7 POP POP POP POP POP POP POP JUMP JUMPDEST PUSH1 0x0 DUP1 PUSH1 0x0 PUSH1 0x60 DUP5 DUP7 SUB SLT ISZERO PUSH2 0x14DF JUMPI PUSH1 0x0 DUP1 REVERT JUMPDEST DUP4 CALLDATALOAD PUSH2 0x14EA DUP2 PUSH2 0x1435 JUMP JUMPDEST SWAP3 POP PUSH1 0x20 DUP5 ADD CALLDATALOAD PUSH8 0xFFFFFFFFFFFFFFFF DUP1 DUP3 GT ISZERO PUSH2 0x1507 JUMPI PUSH1 0x0 DUP1 REVERT JUMPDEST PUSH2 0x1513 DUP8 DUP4 DUP9 ADD PUSH2 0x120E JUMP JUMPDEST SWAP4 POP PUSH1 0x40 DUP7 ADD CALLDATALOAD SWAP2 POP DUP1 DUP3 GT ISZERO PUSH2 0x1529 JUMPI PUSH1 0x0 DUP1 REVERT JUMPDEST POP PUSH2 0x1536 DUP7 DUP3 DUP8 ADD PUSH2 0x1443 JUMP JUMPDEST SWAP2 POP POP SWAP3 POP SWAP3 POP SWAP3 JUMP JUMPDEST PUSH1 0x20 DUP2 MSTORE PUSH1 0x0 DUP3 MLOAD PUSH1 0x60 PUSH1 0x20 DUP5 ADD MSTORE PUSH2 0x155C PUSH1 0x80 DUP5 ADD DUP3 PUSH2 0x12E3 JUMP JUMPDEST SWAP1 POP PUSH1 0x20 DUP5 ADD MLOAD PUSH1 0x1F NOT DUP5 DUP4 SUB ADD PUSH1 0x40 DUP6 ADD MSTORE PUSH2 0x1579 DUP3 DUP3 PUSH2 0x12E3 JUMP JUMPDEST SWAP2 POP POP PUSH1 0x40 DUP5 ADD MLOAD PUSH1 0x60 DUP5 ADD MSTORE DUP1 SWAP2 POP POP SWAP3 SWAP2 POP POP JUMP JUMPDEST PUSH1 0x0 DUP1 PUSH1 0x40 DUP4 DUP6 SUB SLT ISZERO PUSH2 0x15A3 JUMPI PUSH1 0x0 DUP1 REVERT JUMPDEST POP POP DUP1 CALLDATALOAD SWAP3 PUSH1 0x20 SWAP1 SWAP2 ADD CALLDATALOAD SWAP2 POP JUMP JUMPDEST PUSH1 0x0 DUP1 PUSH1 0x40 DUP4 DUP6 SUB SLT ISZERO PUSH2 0x15C5 JUMPI PUSH1 0x0 DUP1 REVERT JUMPDEST DUP3 CALLDATALOAD PUSH8 0xFFFFFFFFFFFFFFFF DUP1 DUP3 GT ISZERO PUSH2 0x15DD JUMPI PUSH1 0x0 DUP1 REVERT JUMPDEST PUSH2 0x15E9 DUP7 DUP4 DUP8 ADD PUSH2 0x120E JUMP JUMPDEST SWAP4 POP PUSH1 0x20 DUP6 ADD CALLDATALOAD SWAP2 POP DUP1 DUP3 GT ISZERO PUSH2 0x15FF JUMPI PUSH1 0x0 DUP1 REVERT JUMPDEST POP PUSH2 0x142B DUP6 DUP3 DUP7 ADD PUSH2 0x1443 JUMP JUMPDEST PUSH1 0x0 PUSH1 0x20 DUP3 DUP5 SUB SLT ISZERO PUSH2 0x161E JUMPI PUSH1 0x0 DUP1 REVERT JUMPDEST POP CALLDATALOAD SWAP2 SWAP1 POP JUMP JUMPDEST PUSH1 0x20 DUP2 ADD PUSH1 0x3 DUP4 LT PUSH2 0x1647 JUMPI PUSH4 0x4E487B71 PUSH1 0xE0 SHL PUSH1 0x0 MSTORE PUSH1 0x21 PUSH1 0x4 MSTORE PUSH1 0x24 PUSH1 0x0 REVERT JUMPDEST SWAP2 SWAP1 MSTORE SWAP1 JUMP JUMPDEST PUSH1 0x0 DUP3 MLOAD PUSH2 0x165F DUP2 DUP5 PUSH1 0x20 DUP8 ADD PUSH2 0x12B3 JUMP JUMPDEST SWAP2 SWAP1 SWAP2 ADD SWAP3 SWAP2 POP POP JUMP JUMPDEST PUSH1 0x1 DUP2 DUP2 SHR SWAP1 DUP3 AND DUP1 PUSH2 0x167D JUMPI PUSH1 0x7F DUP3 AND SWAP2 POP JUMPDEST PUSH1 0x20 DUP3 LT DUP2 EQ ISZERO PUSH2 0x169E JUMPI PUSH4 0x4E487B71 PUSH1 0xE0 SHL PUSH1 0x0 MSTORE PUSH1 0x22 PUSH1 0x4 MSTORE PUSH1 0x24 PUSH1 0x0 REVERT JUMPDEST POP SWAP2 SWAP1 POP JUMP JUMPDEST PUSH1 0x20 DUP1 DUP3 MSTORE PUSH1 0x21 SWAP1 DUP3 ADD MSTORE PUSH32 0x5573657220646F6573206E6F7420657869737473206F6E207468652067726F75 PUSH1 0x40 DUP3 ADD MSTORE PUSH1 0x7 PUSH1 0xFC SHL PUSH1 0x60 DUP3 ADD MSTORE PUSH1 0x80 ADD SWAP1 JUMP JUMPDEST PUSH1 0x40 DUP2 MSTORE PUSH1 0x0 PUSH2 0x16F8 PUSH1 0x40 DUP4 ADD DUP6 PUSH2 0x12E3 JUMP JUMPDEST SWAP1 POP DUP3 ISZERO ISZERO PUSH1 0x20 DUP4 ADD MSTORE SWAP4 SWAP3 POP POP POP JUMP JUMPDEST PUSH1 0x20 DUP2 MSTORE PUSH1 0x0 PUSH2 0x11C0 PUSH1 0x20 DUP4 ADD DUP5 PUSH2 0x12E3 JUMP JUMPDEST PUSH1 0x0 PUSH1 0x20 DUP3 DUP5 SUB SLT ISZERO PUSH2 0x172E JUMPI PUSH1 0x0 DUP1 REVERT JUMPDEST POP MLOAD SWAP2 SWAP1 POP JUMP JUMPDEST PUSH4 0x4E487B71 PUSH1 0xE0 SHL PUSH1 0x0 MSTORE PUSH1 0x11 PUSH1 0x4 MSTORE PUSH1 0x24 PUSH1 0x0 REVERT JUMPDEST PUSH1 0x0 DUP3 DUP3 LT ISZERO PUSH2 0x175D JUMPI PUSH2 0x175D PUSH2 0x1735 JUMP JUMPDEST POP SUB SWAP1 JUMP JUMPDEST PUSH4 0x4E487B71 PUSH1 0xE0 SHL PUSH1 0x0 MSTORE PUSH1 0x32 PUSH1 0x4 MSTORE PUSH1 0x24 PUSH1 0x0 REVERT JUMPDEST PUSH1 0x0 PUSH1 0x0 NOT DUP3 EQ ISZERO PUSH2 0x178C JUMPI PUSH2 0x178C PUSH2 0x1735 JUMP JUMPDEST POP PUSH1 0x1 ADD SWAP1 JUMP JUMPDEST PUSH1 0x1 DUP1 PUSH1 0xA0 SHL SUB DUP5 AND DUP2 MSTORE DUP3 PUSH1 0x20 DUP3 ADD MSTORE PUSH1 0x60 PUSH1 0x40 DUP3 ADD MSTORE PUSH1 0x0 PUSH2 0x17BA PUSH1 0x60 DUP4 ADD DUP5 PUSH2 0x12E3 JUMP JUMPDEST SWAP6 SWAP5 POP POP POP POP POP JUMP JUMPDEST PUSH1 0x0 PUSH1 0x20 DUP3 DUP5 SUB SLT ISZERO PUSH2 0x17D5 JUMPI PUSH1 0x0 DUP1 REVERT JUMPDEST DUP2 MLOAD PUSH2 0x11C0 DUP2 PUSH2 0x1435 JUMP JUMPDEST PUSH1 0x0 DUP3 NOT DUP3 GT ISZERO PUSH2 0x17F3 JUMPI PUSH2 0x17F3 PUSH2 0x1735 JUMP JUMPDEST POP ADD SWAP1 JUMP INVALID LOG2 PUSH5 0x6970667358 0x22 SLT KECCAK256 CODECOPY 0x23 0x5F PUSH21 0x9807FB4D2859CCB044579B5BC5F2601E754F8D9228 0xBF GAS SUB RETURNDATACOPY SHL GASPRICE 0x1E PUSH5 0x736F6C6343 STOP ADDMOD SIGNEXTEND STOP CALLER ",
  "sha1": "53271e4bd9ae9f49625eba95a3430f00eb6ea94d",
  "source": "//SPDX-License-Identifier: MIT\n\npragma solidity ^0.8.0;\n\nimport \"@openzeppelin/contracts/access/Ownable.sol\";\nimport \"@chainlink/contracts/src/v0.8/VRFConsumerBase.sol\";\n\n// User Struct for interaction with the Platform\ncontract Wingbird is Ownable, VRFConsumerBase {\n    // CHainlink random number generation\n    bytes32 internal keyHash;\n    uint256 internal fee;\n    uint256 public randomResult;\n\n    constructor(\n        address _vrfCoordinator,\n        address _link,\n        uint256 _fee,\n        bytes32 _keyhash\n    ) VRFConsumerBase(_vrfCoordinator, _link) {\n        keyHash = _keyhash;\n        fee = _fee; // 0.1 LINK (Varies by network)\n    }\n\n    function getRandomNumber() public {\n        require(\n            LINK.balanceOf(address(this)) >= fee,\n            \"Not enough LINK - fill contract with faucet\"\n        );\n        bytes32 requestId = requestRandomness(keyHash, fee);\n        emit RequestedRandomness(requestId);\n    }\n\n    function fulfillRandomness(bytes32 _requestId, uint256 _randomness)\n        internal\n        override\n    {\n        require(_randomness > 0, \"random not found\");\n        randomResult = _randomness;\n    }\n\n    // PHASE0 TUTORIAL, USER CREATION, AND FIRST SEEDS\n\n    // Each bird Represents a user.\n    struct User {\n        string nickName;\n        string imgURL;\n        uint256 randomNumber;\n    }\n\n    enum EggColors {\n        RED,\n        GREE,\n        PURPLE\n    }\n\n    struct BirdHonors {\n        uint256 OwlPoints;\n        uint256 EaglePoints;\n        uint256 PeacockPoints;\n        uint256 HummingbirdPoints;\n        uint256 PenguinPoints;\n    }\n\n    enum BirdRoles {\n        EAGLE,\n        OWL,\n        PEACOCK,\n        PENGUIN,\n        HUMMINGBIRD\n    }\n\n    struct IpfsInfo {\n        string ipfs_cid;\n        address[] _birds;\n    }\n\n    BirdRoles birds;\n\n    address[] totalBirdsOnPlatform;\n\n    // Mappings for different dataTypes\n    mapping(address => User) birdsOnThePlatform;\n    mapping(uint256 => EggColors) public colorIdToEgg;\n    mapping(address => uint256) public birdSeeds;\n    mapping(address => BirdHonors) birdHonor;\n    mapping(string => IpfsInfo) ipfsCids;\n\n    //events\n    //chainlink suff\n    event RequestedRandomness(bytes32 requestId);\n    //contract\n    event userCreated(address _userAddress);\n    event userFunded(address _userAddress, uint256 _amount);\n    event honorSent(uint256 _amount);\n\n    // phase1\n    // NOTE: Which other parameters the emet should emit?\n    event missionOneCompleted(string _ipfs_cid);\n    event missionTwoConsensusCompleted(string _ipfs_cid, bool _consensus);\n\n    //events for storage phase1\n\n    // Creates user passing the chosen nickname, the address, the color of the egg.\n    // The IMG should be URL stored on IPFS\n    // This is the first function to call from the RPG\n    function createNewUser(string memory _nickname, string memory _imgURL)\n        public\n    {\n        // Replace this when using a current ERC20 TOKEN\n        require(getUserBalance(msg.sender) == 0, \"User already exists!\");\n        getRandomNumber();\n        User memory user = User(_nickname, _imgURL, randomResult);\n        birdsOnThePlatform[msg.sender] = user;\n        BirdHonors memory birdHonors = BirdHonors(0, 0, 0, 0, 0);\n        birdHonor[msg.sender] = birdHonors;\n        totalBirdsOnPlatform.push(msg.sender);\n        giveInitialSeeds(msg.sender, 100); // Hardcoded 100 seeds\n        emit userCreated(msg.sender);\n    }\n\n    // Give Seeds to user\n    // NOTE: should we change this to an actual ERC20?\n    // THe amoun should be decided by hackathon organizers, for MVP is Hardcoded.\n    function giveInitialSeeds(address _bird, uint256 _amount) internal {\n        require(_amount >= 100, \"The Minimum amount should be 100\");\n        birdSeeds[_bird] = _amount;\n        emit userFunded(_bird, _amount);\n    }\n\n    function getUser(address _bird) public view returns (User memory) {\n        return birdsOnThePlatform[_bird];\n    }\n\n    function getUserBalance(address _bird) public view returns (uint256) {\n        return birdSeeds[_bird];\n    }\n\n    function getTotalBirds() public view returns (uint256) {\n        return totalBirdsOnPlatform.length;\n    }\n\n    // PHASE 1 PVP AND HONOR SYSTEM, and Honor Getting\n\n    // syncSenses Is the first function of the pvp function\n    function syncSenses(\n        string memory _ipfs_cid_mission1,\n        address[] memory _birds\n    ) public {\n        require(\n            checkAddress(msg.sender, _birds) == true,\n            \"User does not exists on the group\"\n        );\n        IpfsInfo memory newCid = IpfsInfo(_ipfs_cid_mission1, _birds);\n        ipfsCids[_ipfs_cid_mission1] = newCid;\n        emit missionOneCompleted(_ipfs_cid_mission1);\n    }\n\n    function reachConsensus(\n        bool _consensusReached,\n        string memory _ipfs_cid_mission2,\n        address[] memory _birds\n    ) public {\n        require(\n            checkAddress(msg.sender, _birds) == true,\n            \"User does not exists on the group\"\n        );\n        require(_consensusReached == true, \"Consensus not reached\");\n        IpfsInfo memory newCid = IpfsInfo(_ipfs_cid_mission2, _birds);\n        ipfsCids[_ipfs_cid_mission2] = newCid;\n        emit missionTwoConsensusCompleted(\n            _ipfs_cid_mission2,\n            _consensusReached\n        );\n    }\n\n    function getIpfsObject(string memory _cid)\n        public\n        view\n        returns (IpfsInfo memory)\n    {\n        return ipfsCids[_cid];\n    }\n\n    // check if the address on a given array\n    function checkAddress(address _userAddress, address[] memory _users)\n        internal\n        pure\n        returns (bool)\n    {\n        bool exist = false;\n        for (uint256 i = 0; i < _users.length; i++) {\n            if (_users[i] == _userAddress) {\n                exist = true;\n            }\n        }\n        return exist;\n    }\n\n    // Spend token for honor system.\n    // NOTE: should also replace with actual ERC20 token.\n    function giveHonors(uint256 _amount) public {\n        require(_amount == 10);\n        birdSeeds[msg.sender] = birdSeeds[msg.sender] - 10;\n        emit honorSent(_amount);\n    }\n\n    // Interaction storage functions for IPFS\n    function buildFences(string memory _ipfs_cid_mission) public {}\n\n    // set the final puntuation for the bird, based on the honorSent\n\n    function setFinalHonors(\n        uint256 _owl,\n        uint256 _eagle,\n        uint256 _peacock,\n        uint256 _penguin,\n        uint256 _hummingbird,\n        address _bird\n    ) public {\n        birdHonor[_bird].EaglePoints = _eagle;\n        birdHonor[_bird].OwlPoints = _owl;\n        birdHonor[_bird].PenguinPoints = _penguin;\n        birdHonor[_bird].HummingbirdPoints = _hummingbird;\n        birdHonor[_bird].PeacockPoints = _peacock;\n    }\n\n    function getFinalHonors(address _bird)\n        public\n        view\n        returns (BirdHonors memory)\n    {\n        return birdHonor[_bird];\n    }\n}\n",
  "sourcePath": "contracts/Wingbird.sol",
  "type": "contract"
}